{
    "abi": [
        {
            "type": "constructor",
            "inputs": [
                {
                    "name": "_factory",
                    "type": "address",
                    "internalType": "address"
                }
            ],
            "stateMutability": "nonpayable"
        },
        {
            "type": "function",
            "name": "addLiquidity",
            "inputs": [
                {
                    "name": "tokenA",
                    "type": "address",
                    "internalType": "address"
                },
                {
                    "name": "tokenB",
                    "type": "address",
                    "internalType": "address"
                },
                {
                    "name": "amountADesired",
                    "type": "uint256",
                    "internalType": "uint256"
                },
                {
                    "name": "amountBDesired",
                    "type": "uint256",
                    "internalType": "uint256"
                },
                {
                    "name": "amountAMin",
                    "type": "uint256",
                    "internalType": "uint256"
                },
                {
                    "name": "amountBMin",
                    "type": "uint256",
                    "internalType": "uint256"
                },
                {
                    "name": "to",
                    "type": "address",
                    "internalType": "address"
                },
                {
                    "name": "deadline",
                    "type": "uint256",
                    "internalType": "uint256"
                }
            ],
            "outputs": [
                {
                    "name": "amountA",
                    "type": "uint256",
                    "internalType": "uint256"
                },
                {
                    "name": "amountB",
                    "type": "uint256",
                    "internalType": "uint256"
                },
                {
                    "name": "liquidity",
                    "type": "uint256",
                    "internalType": "uint256"
                }
            ],
            "stateMutability": "nonpayable"
        },
        {
            "type": "function",
            "name": "factory",
            "inputs": [],
            "outputs": [
                {
                    "name": "",
                    "type": "address",
                    "internalType": "address"
                }
            ],
            "stateMutability": "view"
        },
        {
            "type": "function",
            "name": "removeLiquidity",
            "inputs": [
                {
                    "name": "tokenA",
                    "type": "address",
                    "internalType": "address"
                },
                {
                    "name": "tokenB",
                    "type": "address",
                    "internalType": "address"
                },
                {
                    "name": "liquidity",
                    "type": "uint256",
                    "internalType": "uint256"
                },
                {
                    "name": "amountAMin",
                    "type": "uint256",
                    "internalType": "uint256"
                },
                {
                    "name": "amountBMin",
                    "type": "uint256",
                    "internalType": "uint256"
                },
                {
                    "name": "to",
                    "type": "address",
                    "internalType": "address"
                },
                {
                    "name": "deadline",
                    "type": "uint256",
                    "internalType": "uint256"
                }
            ],
            "outputs": [
                {
                    "name": "amountA",
                    "type": "uint256",
                    "internalType": "uint256"
                },
                {
                    "name": "amountB",
                    "type": "uint256",
                    "internalType": "uint256"
                }
            ],
            "stateMutability": "nonpayable"
        },
        {
            "type": "function",
            "name": "swapExactTokensForTokens",
            "inputs": [
                {
                    "name": "amountIn",
                    "type": "uint256",
                    "internalType": "uint256"
                },
                {
                    "name": "amountOutMin",
                    "type": "uint256",
                    "internalType": "uint256"
                },
                {
                    "name": "path",
                    "type": "address[]",
                    "internalType": "address[]"
                },
                {
                    "name": "to",
                    "type": "address",
                    "internalType": "address"
                },
                {
                    "name": "deadline",
                    "type": "uint256",
                    "internalType": "uint256"
                }
            ],
            "outputs": [
                {
                    "name": "amounts",
                    "type": "uint256[]",
                    "internalType": "uint256[]"
                }
            ],
            "stateMutability": "nonpayable"
        },
        {
            "type": "function",
            "name": "swapTokensForExactTokens",
            "inputs": [
                {
                    "name": "amountOut",
                    "type": "uint256",
                    "internalType": "uint256"
                },
                {
                    "name": "amountInMax",
                    "type": "uint256",
                    "internalType": "uint256"
                },
                {
                    "name": "path",
                    "type": "address[]",
                    "internalType": "address[]"
                },
                {
                    "name": "to",
                    "type": "address",
                    "internalType": "address"
                },
                {
                    "name": "deadline",
                    "type": "uint256",
                    "internalType": "uint256"
                }
            ],
            "outputs": [
                {
                    "name": "amounts",
                    "type": "uint256[]",
                    "internalType": "uint256[]"
                }
            ],
            "stateMutability": "nonpayable"
        }
    ],
    "bytecode": {
        "object": "0x60a060405234801561000f575f5ffd5b50604051612a8b380380612a8b833981810160405281019061003191906100c9565b8073ffffffffffffffffffffffffffffffffffffffff1660808173ffffffffffffffffffffffffffffffffffffffff1681525050506100f4565b5f5ffd5b5f73ffffffffffffffffffffffffffffffffffffffff82169050919050565b5f6100988261006f565b9050919050565b6100a88161008e565b81146100b2575f5ffd5b50565b5f815190506100c38161009f565b92915050565b5f602082840312156100de576100dd61006b565b5b5f6100eb848285016100b5565b91505092915050565b6080516129326101595f395f8181610185015281816102a0015281816104300152818161053e015281816106cf015281816108e20152818161096701528181610e0101528181610e5501528181611229015281816112de015261138001526129325ff3fe608060405234801561000f575f5ffd5b5060043610610055575f3560e01c806338ed1739146100595780638803dbee14610089578063baa2abde146100b9578063c45a0155146100ea578063e8e3370014610108575b5f5ffd5b610073600480360381019061006e9190611915565b61013a565b6040516100809190611a62565b60405180910390f35b6100a3600480360381019061009e9190611915565b6103e5565b6040516100b09190611a62565b60405180910390f35b6100d360048036038101906100ce9190611a82565b610683565b6040516100e1929190611b2e565b60405180910390f35b6100f26108e0565b6040516100ff9190611b64565b60405180910390f35b610122600480360381019061011d9190611b7d565b610904565b60405161013193929190611c2e565b60405180910390f35b60608180421115610180576040517f08c379a000000000000000000000000000000000000000000000000000000000815260040161017790611cbd565b60405180910390fd5b6101eb7f0000000000000000000000000000000000000000000000000000000000000000898888808060200260200160405190810160405280939291908181526020018383602002808284375f81840152601f19601f82011690508083019250505050505050610b16565b91508682600184516101fd9190611d08565b8151811061020e5761020d611d3b565b5b60200260200101511015610257576040517f08c379a000000000000000000000000000000000000000000000000000000000815260040161024e90611dd8565b60405180910390fd5b85855f81811061026a57610269611d3b565b5b905060200201602081019061027f9190611df6565b73ffffffffffffffffffffffffffffffffffffffff166323b872dd336103157f00000000000000000000000000000000000000000000000000000000000000008a8a5f8181106102d2576102d1611d3b565b5b90506020020160208101906102e79190611df6565b8b8b60018181106102fb576102fa611d3b565b5b90506020020160208101906103109190611df6565b610c98565b855f8151811061032857610327611d3b565b5b60200260200101516040518463ffffffff1660e01b815260040161034e93929190611e21565b6020604051808303815f875af115801561036a573d5f5f3e3d5ffd5b505050506040513d601f19601f8201168201806040525081019061038e9190611e8b565b506103da828787808060200260200160405190810160405280939291908181526020018383602002808284375f81840152601f19601f8201169050808301925050505050505086610d07565b509695505050505050565b6060818042111561042b576040517f08c379a000000000000000000000000000000000000000000000000000000000815260040161042290611cbd565b60405180910390fd5b6104967f0000000000000000000000000000000000000000000000000000000000000000898888808060200260200160405190810160405280939291908181526020018383602002808284375f81840152601f19601f82011690508083019250505050505050610f4c565b915086825f815181106104ac576104ab611d3b565b5b602002602001015111156104f5576040517f08c379a00000000000000000000000000000000000000000000000000000000081526004016104ec90611f26565b60405180910390fd5b85855f81811061050857610507611d3b565b5b905060200201602081019061051d9190611df6565b73ffffffffffffffffffffffffffffffffffffffff166323b872dd336105b37f00000000000000000000000000000000000000000000000000000000000000008a8a5f8181106105705761056f611d3b565b5b90506020020160208101906105859190611df6565b8b8b600181811061059957610598611d3b565b5b90506020020160208101906105ae9190611df6565b610c98565b855f815181106105c6576105c5611d3b565b5b60200260200101516040518463ffffffff1660e01b81526004016105ec93929190611e21565b6020604051808303815f875af1158015610608573d5f5f3e3d5ffd5b505050506040513d601f19601f8201168201806040525081019061062c9190611e8b565b50610678828787808060200260200160405190810160405280939291908181526020018383602002808284375f81840152601f19601f8201169050808301925050505050505086610d07565b509695505050505050565b5f5f82804211156106c9576040517f08c379a00000000000000000000000000000000000000000000000000000000081526004016106c090611cbd565b60405180910390fd5b5f6106f57f00000000000000000000000000000000000000000000000000000000000000008c8c610c98565b90508073ffffffffffffffffffffffffffffffffffffffff166323b872dd33838c6040518463ffffffff1660e01b815260040161073493929190611e21565b6020604051808303815f875af1158015610750573d5f5f3e3d5ffd5b505050506040513d601f19601f820116820180604052508101906107749190611e8b565b505f5f8273ffffffffffffffffffffffffffffffffffffffff166389afcb44896040518263ffffffff1660e01b81526004016107b09190611b64565b60408051808303815f875af11580156107cb573d5f5f3e3d5ffd5b505050506040513d601f19601f820116820180604052508101906107ef9190611f58565b915091505f5f6107ff8f8f6110e4565b915091508173ffffffffffffffffffffffffffffffffffffffff168f73ffffffffffffffffffffffffffffffffffffffff161461083d578284610840565b83835b80985081995050508b88101561088b576040517f08c379a000000000000000000000000000000000000000000000000000000000815260040161088290612006565b60405180910390fd5b8a8710156108ce576040517f08c379a00000000000000000000000000000000000000000000000000000000081526004016108c590612094565b60405180910390fd5b50505050505097509795505050505050565b7f000000000000000000000000000000000000000000000000000000000000000081565b5f5f5f838042111561094b576040517f08c379a000000000000000000000000000000000000000000000000000000000815260040161094290611cbd565b60405180910390fd5b6109598c8c8c8c8c8c61120e565b80945081955050505f61098d7f00000000000000000000000000000000000000000000000000000000000000008e8e610c98565b90508c73ffffffffffffffffffffffffffffffffffffffff166323b872dd3383886040518463ffffffff1660e01b81526004016109cc93929190611e21565b6020604051808303815f875af11580156109e8573d5f5f3e3d5ffd5b505050506040513d601f19601f82011682018060405250810190610a0c9190611e8b565b508b73ffffffffffffffffffffffffffffffffffffffff166323b872dd3383876040518463ffffffff1660e01b8152600401610a4a93929190611e21565b6020604051808303815f875af1158015610a66573d5f5f3e3d5ffd5b505050506040513d601f19601f82011682018060405250810190610a8a9190611e8b565b508073ffffffffffffffffffffffffffffffffffffffff16636a627842886040518263ffffffff1660e01b8152600401610ac49190611b64565b6020604051808303815f875af1158015610ae0573d5f5f3e3d5ffd5b505050506040513d601f19601f82011682018060405250810190610b0491906120b2565b92505050985098509895505050505050565b6060600282511015610b5d576040517f08c379a0000000000000000000000000000000000000000000000000000000008152600401610b5490612127565b60405180910390fd5b815167ffffffffffffffff811115610b7857610b77612145565b5b604051908082528060200260200182016040528015610ba65781602001602082028036833780820191505090505b50905082815f81518110610bbd57610bbc611d3b565b5b6020026020010181815250505f5b60018351610bd99190611d08565b811015610c90575f5f610c2d87868581518110610bf957610bf8611d3b565b5b602002602001015187600187610c0f9190612172565b81518110610c2057610c1f611d3b565b5b602002602001015161149f565b91509150610c56848481518110610c4757610c46611d3b565b5b602002602001015183836115a0565b84600185610c649190612172565b81518110610c7557610c74611d3b565b5b60200260200101818152505050508080600101915050610bcb565b509392505050565b5f5f5f610ca585856110e4565b91509150858282604051602001610cbd9291906121ea565b60405160208183030381529060405280519060200120604051602001610ce49291906122dc565b604051602081830303815290604052805190602001205f1c925050509392505050565b5f5b60018351610d179190611d08565b811015610f46575f5f848381518110610d3357610d32611d3b565b5b602002602001015185600185610d499190612172565b81518110610d5a57610d59611d3b565b5b6020026020010151915091505f610d7183836110e4565b5090505f87600186610d839190612172565b81518110610d9457610d93611d3b565b5b602002602001015190505f5f8373ffffffffffffffffffffffffffffffffffffffff168673ffffffffffffffffffffffffffffffffffffffff1614610dda57825f610ddd565b5f835b915091505f60028a51610df09190611d08565b8810610dfc5788610e4e565b610e4d7f0000000000000000000000000000000000000000000000000000000000000000878c60028c610e2f9190612172565b81518110610e4057610e3f611d3b565b5b6020026020010151610c98565b5b9050610e7b7f00000000000000000000000000000000000000000000000000000000000000008888610c98565b73ffffffffffffffffffffffffffffffffffffffff1663022c0d9f8484845f67ffffffffffffffff811115610eb357610eb2612145565b5b6040519080825280601f01601f191660200182016040528015610ee55781602001600182028036833780820191505090505b506040518563ffffffff1660e01b8152600401610f05949392919061238d565b5f604051808303815f87803b158015610f1c575f5ffd5b505af1158015610f2e573d5f5f3e3d5ffd5b50505050505050505050508080600101915050610d09565b50505050565b6060600282511015610f93576040517f08c379a0000000000000000000000000000000000000000000000000000000008152600401610f8a90612127565b60405180910390fd5b815167ffffffffffffffff811115610fae57610fad612145565b5b604051908082528060200260200182016040528015610fdc5781602001602082028036833780820191505090505b509050828160018351610fef9190611d08565b8151811061100057610fff611d3b565b5b6020026020010181815250505f6001835161101b9190611d08565b90505b5f8111156110dc575f5f611073878660018661103a9190611d08565b8151811061104b5761104a611d3b565b5b602002602001015187868151811061106657611065611d3b565b5b602002602001015161149f565b9150915061109c84848151811061108d5761108c611d3b565b5b60200260200101518383611684565b846001856110aa9190611d08565b815181106110bb576110ba611d3b565b5b602002602001018181525050505080806110d4906123d7565b91505061101e565b509392505050565b5f5f8273ffffffffffffffffffffffffffffffffffffffff168473ffffffffffffffffffffffffffffffffffffffff1603611154576040517f08c379a000000000000000000000000000000000000000000000000000000000815260040161114b9061246e565b60405180910390fd5b8273ffffffffffffffffffffffffffffffffffffffff168473ffffffffffffffffffffffffffffffffffffffff161061118e578284611191565b83835b80925081935050505f73ffffffffffffffffffffffffffffffffffffffff168273ffffffffffffffffffffffffffffffffffffffff1603611207576040517f08c379a00000000000000000000000000000000000000000000000000000000081526004016111fe906124d6565b60405180910390fd5b9250929050565b5f5f5f73ffffffffffffffffffffffffffffffffffffffff167f000000000000000000000000000000000000000000000000000000000000000073ffffffffffffffffffffffffffffffffffffffff1663e6a439058a8a6040518363ffffffff1660e01b81526004016112829291906124f4565b602060405180830381865afa15801561129d573d5f5f3e3d5ffd5b505050506040513d601f19601f820116820180604052508101906112c1919061252f565b73ffffffffffffffffffffffffffffffffffffffff1603611379577f000000000000000000000000000000000000000000000000000000000000000073ffffffffffffffffffffffffffffffffffffffff1663c9c6539689896040518363ffffffff1660e01b81526004016113379291906124f4565b6020604051808303815f875af1158015611353573d5f5f3e3d5ffd5b505050506040513d601f19601f82011682018060405250810190611377919061252f565b505b5f5f6113a67f00000000000000000000000000000000000000000000000000000000000000008b8b61149f565b915091505f821480156113b857505f81145b156113cc5787878094508195505050611492565b5f6113d889848461176f565b90508781116114335785811015611424576040517f08c379a000000000000000000000000000000000000000000000000000000000815260040161141b90612094565b60405180910390fd5b88818095508196505050611490565b5f61143f89848661176f565b905089811115611484576040517f08c379a000000000000000000000000000000000000000000000000000000000815260040161147b90612006565b60405180910390fd5b80898096508197505050505b505b5050965096945050505050565b5f5f5f5f6114ad86866110e4565b915091505f5f6114be898989610c98565b73ffffffffffffffffffffffffffffffffffffffff16630902f1ac6040518163ffffffff1660e01b8152600401606060405180830381865afa158015611506573d5f5f3e3d5ffd5b505050506040513d601f19601f8201168201806040525081019061152a91906125d6565b506dffffffffffffffffffffffffffff1691506dffffffffffffffffffffffffffff1691508373ffffffffffffffffffffffffffffffffffffffff168873ffffffffffffffffffffffffffffffffffffffff161461158957808261158c565b81815b809650819750505050505050935093915050565b5f5f84116115e3576040517f08c379a00000000000000000000000000000000000000000000000000000000081526004016115da90612696565b60405180910390fd5b5f831180156115f157505f82115b611630576040517f08c379a000000000000000000000000000000000000000000000000000000000815260040161162790612724565b60405180910390fd5b5f6103e58561163f9190612742565b90505f838261164e9190612742565b90505f826103e8876116609190612742565b61166a9190612172565b9050808261167891906127b0565b93505050509392505050565b5f5f84116116c7576040517f08c379a00000000000000000000000000000000000000000000000000000000081526004016116be90612850565b60405180910390fd5b5f831180156116d557505f82115b611714576040517f08c379a000000000000000000000000000000000000000000000000000000000815260040161170b90612724565b60405180910390fd5b5f6103e885856117249190612742565b61172e9190612742565b90505f6103e586856117409190611d08565b61174a9190612742565b90506001818361175a91906127b0565b6117649190612172565b925050509392505050565b5f5f84116117b2576040517f08c379a00000000000000000000000000000000000000000000000000000000081526004016117a9906128de565b60405180910390fd5b5f831180156117c057505f82115b6117ff576040517f08c379a00000000000000000000000000000000000000000000000000000000081526004016117f690612724565b60405180910390fd5b82828561180c9190612742565b61181691906127b0565b90509392505050565b5f5ffd5b5f5ffd5b5f819050919050565b61183981611827565b8114611843575f5ffd5b50565b5f8135905061185481611830565b92915050565b5f5ffd5b5f5ffd5b5f5ffd5b5f5f83601f84011261187b5761187a61185a565b5b8235905067ffffffffffffffff8111156118985761189761185e565b5b6020830191508360208202830111156118b4576118b3611862565b5b9250929050565b5f73ffffffffffffffffffffffffffffffffffffffff82169050919050565b5f6118e4826118bb565b9050919050565b6118f4816118da565b81146118fe575f5ffd5b50565b5f8135905061190f816118eb565b92915050565b5f5f5f5f5f5f60a0878903121561192f5761192e61181f565b5b5f61193c89828a01611846565b965050602061194d89828a01611846565b955050604087013567ffffffffffffffff81111561196e5761196d611823565b5b61197a89828a01611866565b9450945050606061198d89828a01611901565b925050608061199e89828a01611846565b9150509295509295509295565b5f81519050919050565b5f82825260208201905092915050565b5f819050602082019050919050565b6119dd81611827565b82525050565b5f6119ee83836119d4565b60208301905092915050565b5f602082019050919050565b5f611a10826119ab565b611a1a81856119b5565b9350611a25836119c5565b805f5b83811015611a55578151611a3c88826119e3565b9750611a47836119fa565b925050600181019050611a28565b5085935050505092915050565b5f6020820190508181035f830152611a7a8184611a06565b905092915050565b5f5f5f5f5f5f5f60e0888a031215611a9d57611a9c61181f565b5b5f611aaa8a828b01611901565b9750506020611abb8a828b01611901565b9650506040611acc8a828b01611846565b9550506060611add8a828b01611846565b9450506080611aee8a828b01611846565b93505060a0611aff8a828b01611901565b92505060c0611b108a828b01611846565b91505092959891949750929550565b611b2881611827565b82525050565b5f604082019050611b415f830185611b1f565b611b4e6020830184611b1f565b9392505050565b611b5e816118da565b82525050565b5f602082019050611b775f830184611b55565b92915050565b5f5f5f5f5f5f5f5f610100898b031215611b9a57611b9961181f565b5b5f611ba78b828c01611901565b9850506020611bb88b828c01611901565b9750506040611bc98b828c01611846565b9650506060611bda8b828c01611846565b9550506080611beb8b828c01611846565b94505060a0611bfc8b828c01611846565b93505060c0611c0d8b828c01611901565b92505060e0611c1e8b828c01611846565b9150509295985092959890939650565b5f606082019050611c415f830186611b1f565b611c4e6020830185611b1f565b611c5b6040830184611b1f565b949350505050565b5f82825260208201905092915050565b7f556e69737761705632526f757465723a204558504952454400000000000000005f82015250565b5f611ca7601883611c63565b9150611cb282611c73565b602082019050919050565b5f6020820190508181035f830152611cd481611c9b565b9050919050565b7f4e487b71000000000000000000000000000000000000000000000000000000005f52601160045260245ffd5b5f611d1282611827565b9150611d1d83611827565b9250828203905081811115611d3557611d34611cdb565b5b92915050565b7f4e487b71000000000000000000000000000000000000000000000000000000005f52603260045260245ffd5b7f556e69737761705632526f757465723a20494e53554646494349454e545f4f555f8201527f545055545f414d4f554e54000000000000000000000000000000000000000000602082015250565b5f611dc2602b83611c63565b9150611dcd82611d68565b604082019050919050565b5f6020820190508181035f830152611def81611db6565b9050919050565b5f60208284031215611e0b57611e0a61181f565b5b5f611e1884828501611901565b91505092915050565b5f606082019050611e345f830186611b55565b611e416020830185611b55565b611e4e6040830184611b1f565b949350505050565b5f8115159050919050565b611e6a81611e56565b8114611e74575f5ffd5b50565b5f81519050611e8581611e61565b92915050565b5f60208284031215611ea057611e9f61181f565b5b5f611ead84828501611e77565b91505092915050565b7f556e69737761705632526f757465723a204558434553534956455f494e5055545f8201527f5f414d4f554e5400000000000000000000000000000000000000000000000000602082015250565b5f611f10602783611c63565b9150611f1b82611eb6565b604082019050919050565b5f6020820190508181035f830152611f3d81611f04565b9050919050565b5f81519050611f5281611830565b92915050565b5f5f60408385031215611f6e57611f6d61181f565b5b5f611f7b85828601611f44565b9250506020611f8c85828601611f44565b9150509250929050565b7f556e69737761705632526f757465723a20494e53554646494349454e545f415f5f8201527f414d4f554e540000000000000000000000000000000000000000000000000000602082015250565b5f611ff0602683611c63565b9150611ffb82611f96565b604082019050919050565b5f6020820190508181035f83015261201d81611fe4565b9050919050565b7f556e69737761705632526f757465723a20494e53554646494349454e545f425f5f8201527f414d4f554e540000000000000000000000000000000000000000000000000000602082015250565b5f61207e602683611c63565b915061208982612024565b604082019050919050565b5f6020820190508181035f8301526120ab81612072565b9050919050565b5f602082840312156120c7576120c661181f565b5b5f6120d484828501611f44565b91505092915050565b7f556e697377617056324c6962726172793a20494e56414c49445f5041544800005f82015250565b5f612111601e83611c63565b915061211c826120dd565b602082019050919050565b5f6020820190508181035f83015261213e81612105565b9050919050565b7f4e487b71000000000000000000000000000000000000000000000000000000005f52604160045260245ffd5b5f61217c82611827565b915061218783611827565b925082820190508082111561219f5761219e611cdb565b5b92915050565b5f8160601b9050919050565b5f6121bb826121a5565b9050919050565b5f6121cc826121b1565b9050919050565b6121e46121df826118da565b6121c2565b82525050565b5f6121f582856121d3565b60148201915061220582846121d3565b6014820191508190509392505050565b5f81905092915050565b7fff000000000000000000000000000000000000000000000000000000000000005f82015250565b5f612253600183612215565b915061225e8261221f565b600182019050919050565b5f819050919050565b5f819050919050565b61228c61228782612269565b612272565b82525050565b7fd563a640c77183842e288ffca2b13ca06254667709e73e0a99d46f42aa80eaa15f82015250565b5f6122c6602083612215565b91506122d182612292565b602082019050919050565b5f6122e682612247565b91506122f282856121d3565b601482019150612302828461227b565b602082019150612311826122ba565b91508190509392505050565b5f81519050919050565b5f82825260208201905092915050565b8281835e5f83830152505050565b5f601f19601f8301169050919050565b5f61235f8261231d565b6123698185612327565b9350612379818560208601612337565b61238281612345565b840191505092915050565b5f6080820190506123a05f830187611b1f565b6123ad6020830186611b1f565b6123ba6040830185611b55565b81810360608301526123cc8184612355565b905095945050505050565b5f6123e182611827565b91505f82036123f3576123f2611cdb565b5b600182039050919050565b7f556e697377617056324c6962726172793a204944454e544943414c5f414444525f8201527f4553534553000000000000000000000000000000000000000000000000000000602082015250565b5f612458602583611c63565b9150612463826123fe565b604082019050919050565b5f6020820190508181035f8301526124858161244c565b9050919050565b7f556e697377617056324c6962726172793a205a45524f5f4144445245535300005f82015250565b5f6124c0601e83611c63565b91506124cb8261248c565b602082019050919050565b5f6020820190508181035f8301526124ed816124b4565b9050919050565b5f6040820190506125075f830185611b55565b6125146020830184611b55565b9392505050565b5f81519050612529816118eb565b92915050565b5f602082840312156125445761254361181f565b5b5f6125518482850161251b565b91505092915050565b5f6dffffffffffffffffffffffffffff82169050919050565b61257c8161255a565b8114612586575f5ffd5b50565b5f8151905061259781612573565b92915050565b5f63ffffffff82169050919050565b6125b58161259d565b81146125bf575f5ffd5b50565b5f815190506125d0816125ac565b92915050565b5f5f5f606084860312156125ed576125ec61181f565b5b5f6125fa86828701612589565b935050602061260b86828701612589565b925050604061261c868287016125c2565b9150509250925092565b7f556e697377617056324c6962726172793a20494e53554646494349454e545f495f8201527f4e5055545f414d4f554e54000000000000000000000000000000000000000000602082015250565b5f612680602b83611c63565b915061268b82612626565b604082019050919050565b5f6020820190508181035f8301526126ad81612674565b9050919050565b7f556e697377617056324c6962726172793a20494e53554646494349454e545f4c5f8201527f4951554944495459000000000000000000000000000000000000000000000000602082015250565b5f61270e602883611c63565b9150612719826126b4565b604082019050919050565b5f6020820190508181035f83015261273b81612702565b9050919050565b5f61274c82611827565b915061275783611827565b925082820261276581611827565b9150828204841483151761277c5761277b611cdb565b5b5092915050565b7f4e487b71000000000000000000000000000000000000000000000000000000005f52601260045260245ffd5b5f6127ba82611827565b91506127c583611827565b9250826127d5576127d4612783565b5b828204905092915050565b7f556e697377617056324c6962726172793a20494e53554646494349454e545f4f5f8201527f55545055545f414d4f554e540000000000000000000000000000000000000000602082015250565b5f61283a602c83611c63565b9150612845826127e0565b604082019050919050565b5f6020820190508181035f8301526128678161282e565b9050919050565b7f556e697377617056324c6962726172793a20494e53554646494349454e545f415f8201527f4d4f554e54000000000000000000000000000000000000000000000000000000602082015250565b5f6128c8602583611c63565b91506128d38261286e565b604082019050919050565b5f6020820190508181035f8301526128f5816128bc565b905091905056fea264697066735822122018c7be174c1d08b55b31291f1d33a668622b237f3f81c39ae66fd6dccb26ed5564736f6c634300081e0033",
        "linkReferences": {}
    },
    "methodIdentifiers": {
        "addLiquidity(address,address,uint256,uint256,uint256,uint256,address,uint256)": "e8e33700",
        "factory()": "c45a0155",
        "removeLiquidity(address,address,uint256,uint256,uint256,address,uint256)": "baa2abde",
        "swapExactTokensForTokens(uint256,uint256,address[],address,uint256)": "38ed1739",
        "swapTokensForExactTokens(uint256,uint256,address[],address,uint256)": "8803dbee"
    },
    "id": 50
}