{
    "abi": [
        {
            "type": "constructor",
            "inputs": [],
            "stateMutability": "nonpayable"
        },
        {
            "type": "function",
            "name": "DOMAIN_SEPARATOR",
            "inputs": [],
            "outputs": [
                {
                    "name": "",
                    "type": "bytes32",
                    "internalType": "bytes32"
                }
            ],
            "stateMutability": "view"
        },
        {
            "type": "function",
            "name": "MINIMUM_LIQUIDITY",
            "inputs": [],
            "outputs": [
                {
                    "name": "",
                    "type": "uint256",
                    "internalType": "uint256"
                }
            ],
            "stateMutability": "view"
        },
        {
            "type": "function",
            "name": "allowance",
            "inputs": [
                {
                    "name": "owner",
                    "type": "address",
                    "internalType": "address"
                },
                {
                    "name": "spender",
                    "type": "address",
                    "internalType": "address"
                }
            ],
            "outputs": [
                {
                    "name": "",
                    "type": "uint256",
                    "internalType": "uint256"
                }
            ],
            "stateMutability": "view"
        },
        {
            "type": "function",
            "name": "approve",
            "inputs": [
                {
                    "name": "spender",
                    "type": "address",
                    "internalType": "address"
                },
                {
                    "name": "value",
                    "type": "uint256",
                    "internalType": "uint256"
                }
            ],
            "outputs": [
                {
                    "name": "",
                    "type": "bool",
                    "internalType": "bool"
                }
            ],
            "stateMutability": "nonpayable"
        },
        {
            "type": "function",
            "name": "balanceOf",
            "inputs": [
                {
                    "name": "account",
                    "type": "address",
                    "internalType": "address"
                }
            ],
            "outputs": [
                {
                    "name": "",
                    "type": "uint256",
                    "internalType": "uint256"
                }
            ],
            "stateMutability": "view"
        },
        {
            "type": "function",
            "name": "burn",
            "inputs": [
                {
                    "name": "to",
                    "type": "address",
                    "internalType": "address"
                }
            ],
            "outputs": [
                {
                    "name": "amount0",
                    "type": "uint256",
                    "internalType": "uint256"
                },
                {
                    "name": "amount1",
                    "type": "uint256",
                    "internalType": "uint256"
                }
            ],
            "stateMutability": "nonpayable"
        },
        {
            "type": "function",
            "name": "decimals",
            "inputs": [],
            "outputs": [
                {
                    "name": "",
                    "type": "uint8",
                    "internalType": "uint8"
                }
            ],
            "stateMutability": "view"
        },
        {
            "type": "function",
            "name": "eip712Domain",
            "inputs": [],
            "outputs": [
                {
                    "name": "fields",
                    "type": "bytes1",
                    "internalType": "bytes1"
                },
                {
                    "name": "name",
                    "type": "string",
                    "internalType": "string"
                },
                {
                    "name": "version",
                    "type": "string",
                    "internalType": "string"
                },
                {
                    "name": "chainId",
                    "type": "uint256",
                    "internalType": "uint256"
                },
                {
                    "name": "verifyingContract",
                    "type": "address",
                    "internalType": "address"
                },
                {
                    "name": "salt",
                    "type": "bytes32",
                    "internalType": "bytes32"
                },
                {
                    "name": "extensions",
                    "type": "uint256[]",
                    "internalType": "uint256[]"
                }
            ],
            "stateMutability": "view"
        },
        {
            "type": "function",
            "name": "factory",
            "inputs": [],
            "outputs": [
                {
                    "name": "",
                    "type": "address",
                    "internalType": "address"
                }
            ],
            "stateMutability": "view"
        },
        {
            "type": "function",
            "name": "getReserves",
            "inputs": [],
            "outputs": [
                {
                    "name": "_reserve0",
                    "type": "uint112",
                    "internalType": "uint112"
                },
                {
                    "name": "_reserve1",
                    "type": "uint112",
                    "internalType": "uint112"
                },
                {
                    "name": "_blockTimestampLast",
                    "type": "uint32",
                    "internalType": "uint32"
                }
            ],
            "stateMutability": "view"
        },
        {
            "type": "function",
            "name": "initialize",
            "inputs": [
                {
                    "name": "_token0",
                    "type": "address",
                    "internalType": "address"
                },
                {
                    "name": "_token1",
                    "type": "address",
                    "internalType": "address"
                }
            ],
            "outputs": [],
            "stateMutability": "nonpayable"
        },
        {
            "type": "function",
            "name": "kLast",
            "inputs": [],
            "outputs": [
                {
                    "name": "",
                    "type": "uint256",
                    "internalType": "uint256"
                }
            ],
            "stateMutability": "view"
        },
        {
            "type": "function",
            "name": "mint",
            "inputs": [
                {
                    "name": "to",
                    "type": "address",
                    "internalType": "address"
                }
            ],
            "outputs": [
                {
                    "name": "liquidity",
                    "type": "uint256",
                    "internalType": "uint256"
                }
            ],
            "stateMutability": "nonpayable"
        },
        {
            "type": "function",
            "name": "name",
            "inputs": [],
            "outputs": [
                {
                    "name": "",
                    "type": "string",
                    "internalType": "string"
                }
            ],
            "stateMutability": "view"
        },
        {
            "type": "function",
            "name": "nonces",
            "inputs": [
                {
                    "name": "owner",
                    "type": "address",
                    "internalType": "address"
                }
            ],
            "outputs": [
                {
                    "name": "",
                    "type": "uint256",
                    "internalType": "uint256"
                }
            ],
            "stateMutability": "view"
        },
        {
            "type": "function",
            "name": "permit",
            "inputs": [
                {
                    "name": "owner",
                    "type": "address",
                    "internalType": "address"
                },
                {
                    "name": "spender",
                    "type": "address",
                    "internalType": "address"
                },
                {
                    "name": "value",
                    "type": "uint256",
                    "internalType": "uint256"
                },
                {
                    "name": "deadline",
                    "type": "uint256",
                    "internalType": "uint256"
                },
                {
                    "name": "v",
                    "type": "uint8",
                    "internalType": "uint8"
                },
                {
                    "name": "r",
                    "type": "bytes32",
                    "internalType": "bytes32"
                },
                {
                    "name": "s",
                    "type": "bytes32",
                    "internalType": "bytes32"
                }
            ],
            "outputs": [],
            "stateMutability": "nonpayable"
        },
        {
            "type": "function",
            "name": "price0CumulativeLast",
            "inputs": [],
            "outputs": [
                {
                    "name": "",
                    "type": "uint256",
                    "internalType": "uint256"
                }
            ],
            "stateMutability": "view"
        },
        {
            "type": "function",
            "name": "price1CumulativeLast",
            "inputs": [],
            "outputs": [
                {
                    "name": "",
                    "type": "uint256",
                    "internalType": "uint256"
                }
            ],
            "stateMutability": "view"
        },
        {
            "type": "function",
            "name": "skim",
            "inputs": [
                {
                    "name": "to",
                    "type": "address",
                    "internalType": "address"
                }
            ],
            "outputs": [],
            "stateMutability": "nonpayable"
        },
        {
            "type": "function",
            "name": "swap",
            "inputs": [
                {
                    "name": "amount0Out",
                    "type": "uint256",
                    "internalType": "uint256"
                },
                {
                    "name": "amount1Out",
                    "type": "uint256",
                    "internalType": "uint256"
                },
                {
                    "name": "to",
                    "type": "address",
                    "internalType": "address"
                },
                {
                    "name": "data",
                    "type": "bytes",
                    "internalType": "bytes"
                }
            ],
            "outputs": [],
            "stateMutability": "nonpayable"
        },
        {
            "type": "function",
            "name": "symbol",
            "inputs": [],
            "outputs": [
                {
                    "name": "",
                    "type": "string",
                    "internalType": "string"
                }
            ],
            "stateMutability": "view"
        },
        {
            "type": "function",
            "name": "sync",
            "inputs": [],
            "outputs": [],
            "stateMutability": "nonpayable"
        },
        {
            "type": "function",
            "name": "token0",
            "inputs": [],
            "outputs": [
                {
                    "name": "",
                    "type": "address",
                    "internalType": "address"
                }
            ],
            "stateMutability": "view"
        },
        {
            "type": "function",
            "name": "token1",
            "inputs": [],
            "outputs": [
                {
                    "name": "",
                    "type": "address",
                    "internalType": "address"
                }
            ],
            "stateMutability": "view"
        },
        {
            "type": "function",
            "name": "totalSupply",
            "inputs": [],
            "outputs": [
                {
                    "name": "",
                    "type": "uint256",
                    "internalType": "uint256"
                }
            ],
            "stateMutability": "view"
        },
        {
            "type": "function",
            "name": "transfer",
            "inputs": [
                {
                    "name": "to",
                    "type": "address",
                    "internalType": "address"
                },
                {
                    "name": "value",
                    "type": "uint256",
                    "internalType": "uint256"
                }
            ],
            "outputs": [
                {
                    "name": "",
                    "type": "bool",
                    "internalType": "bool"
                }
            ],
            "stateMutability": "nonpayable"
        },
        {
            "type": "function",
            "name": "transferFrom",
            "inputs": [
                {
                    "name": "from",
                    "type": "address",
                    "internalType": "address"
                },
                {
                    "name": "to",
                    "type": "address",
                    "internalType": "address"
                },
                {
                    "name": "value",
                    "type": "uint256",
                    "internalType": "uint256"
                }
            ],
            "outputs": [
                {
                    "name": "",
                    "type": "bool",
                    "internalType": "bool"
                }
            ],
            "stateMutability": "nonpayable"
        },
        {
            "type": "event",
            "name": "Approval",
            "inputs": [
                {
                    "name": "owner",
                    "type": "address",
                    "indexed": true,
                    "internalType": "address"
                },
                {
                    "name": "spender",
                    "type": "address",
                    "indexed": true,
                    "internalType": "address"
                },
                {
                    "name": "value",
                    "type": "uint256",
                    "indexed": false,
                    "internalType": "uint256"
                }
            ],
            "anonymous": false
        },
        {
            "type": "event",
            "name": "Burn",
            "inputs": [
                {
                    "name": "sender",
                    "type": "address",
                    "indexed": true,
                    "internalType": "address"
                },
                {
                    "name": "amount0",
                    "type": "uint256",
                    "indexed": false,
                    "internalType": "uint256"
                },
                {
                    "name": "amount1",
                    "type": "uint256",
                    "indexed": false,
                    "internalType": "uint256"
                },
                {
                    "name": "to",
                    "type": "address",
                    "indexed": true,
                    "internalType": "address"
                }
            ],
            "anonymous": false
        },
        {
            "type": "event",
            "name": "EIP712DomainChanged",
            "inputs": [],
            "anonymous": false
        },
        {
            "type": "event",
            "name": "Mint",
            "inputs": [
                {
                    "name": "sender",
                    "type": "address",
                    "indexed": true,
                    "internalType": "address"
                },
                {
                    "name": "amount0",
                    "type": "uint256",
                    "indexed": false,
                    "internalType": "uint256"
                },
                {
                    "name": "amount1",
                    "type": "uint256",
                    "indexed": false,
                    "internalType": "uint256"
                }
            ],
            "anonymous": false
        },
        {
            "type": "event",
            "name": "Swap",
            "inputs": [
                {
                    "name": "sender",
                    "type": "address",
                    "indexed": true,
                    "internalType": "address"
                },
                {
                    "name": "amount0In",
                    "type": "uint256",
                    "indexed": false,
                    "internalType": "uint256"
                },
                {
                    "name": "amount1In",
                    "type": "uint256",
                    "indexed": false,
                    "internalType": "uint256"
                },
                {
                    "name": "amount0Out",
                    "type": "uint256",
                    "indexed": false,
                    "internalType": "uint256"
                },
                {
                    "name": "amount1Out",
                    "type": "uint256",
                    "indexed": false,
                    "internalType": "uint256"
                },
                {
                    "name": "to",
                    "type": "address",
                    "indexed": true,
                    "internalType": "address"
                }
            ],
            "anonymous": false
        },
        {
            "type": "event",
            "name": "Sync",
            "inputs": [
                {
                    "name": "reserve0",
                    "type": "uint112",
                    "indexed": false,
                    "internalType": "uint112"
                },
                {
                    "name": "reserve1",
                    "type": "uint112",
                    "indexed": false,
                    "internalType": "uint112"
                }
            ],
            "anonymous": false
        },
        {
            "type": "event",
            "name": "Transfer",
            "inputs": [
                {
                    "name": "from",
                    "type": "address",
                    "indexed": true,
                    "internalType": "address"
                },
                {
                    "name": "to",
                    "type": "address",
                    "indexed": true,
                    "internalType": "address"
                },
                {
                    "name": "value",
                    "type": "uint256",
                    "indexed": false,
                    "internalType": "uint256"
                }
            ],
            "anonymous": false
        },
        {
            "type": "error",
            "name": "ECDSAInvalidSignature",
            "inputs": []
        },
        {
            "type": "error",
            "name": "ECDSAInvalidSignatureLength",
            "inputs": [
                {
                    "name": "length",
                    "type": "uint256",
                    "internalType": "uint256"
                }
            ]
        },
        {
            "type": "error",
            "name": "ECDSAInvalidSignatureS",
            "inputs": [
                {
                    "name": "s",
                    "type": "bytes32",
                    "internalType": "bytes32"
                }
            ]
        },
        {
            "type": "error",
            "name": "ERC20InsufficientAllowance",
            "inputs": [
                {
                    "name": "spender",
                    "type": "address",
                    "internalType": "address"
                },
                {
                    "name": "allowance",
                    "type": "uint256",
                    "internalType": "uint256"
                },
                {
                    "name": "needed",
                    "type": "uint256",
                    "internalType": "uint256"
                }
            ]
        },
        {
            "type": "error",
            "name": "ERC20InsufficientBalance",
            "inputs": [
                {
                    "name": "sender",
                    "type": "address",
                    "internalType": "address"
                },
                {
                    "name": "balance",
                    "type": "uint256",
                    "internalType": "uint256"
                },
                {
                    "name": "needed",
                    "type": "uint256",
                    "internalType": "uint256"
                }
            ]
        },
        {
            "type": "error",
            "name": "ERC20InvalidApprover",
            "inputs": [
                {
                    "name": "approver",
                    "type": "address",
                    "internalType": "address"
                }
            ]
        },
        {
            "type": "error",
            "name": "ERC20InvalidReceiver",
            "inputs": [
                {
                    "name": "receiver",
                    "type": "address",
                    "internalType": "address"
                }
            ]
        },
        {
            "type": "error",
            "name": "ERC20InvalidSender",
            "inputs": [
                {
                    "name": "sender",
                    "type": "address",
                    "internalType": "address"
                }
            ]
        },
        {
            "type": "error",
            "name": "ERC20InvalidSpender",
            "inputs": [
                {
                    "name": "spender",
                    "type": "address",
                    "internalType": "address"
                }
            ]
        },
        {
            "type": "error",
            "name": "ERC2612ExpiredSignature",
            "inputs": [
                {
                    "name": "deadline",
                    "type": "uint256",
                    "internalType": "uint256"
                }
            ]
        },
        {
            "type": "error",
            "name": "ERC2612InvalidSigner",
            "inputs": [
                {
                    "name": "signer",
                    "type": "address",
                    "internalType": "address"
                },
                {
                    "name": "owner",
                    "type": "address",
                    "internalType": "address"
                }
            ]
        },
        {
            "type": "error",
            "name": "InvalidAccountNonce",
            "inputs": [
                {
                    "name": "account",
                    "type": "address",
                    "internalType": "address"
                },
                {
                    "name": "currentNonce",
                    "type": "uint256",
                    "internalType": "uint256"
                }
            ]
        },
        {
            "type": "error",
            "name": "InvalidShortString",
            "inputs": []
        },
        {
            "type": "error",
            "name": "StringTooLong",
            "inputs": [
                {
                    "name": "str",
                    "type": "string",
                    "internalType": "string"
                }
            ]
        }
    ],
    "bytecode": {
        "object": "0x6101606040526001600f55348015610015575f5ffd5b506040518060400160405280600a81526020017f556e697377617020563200000000000000000000000000000000000000000000815250806040518060400160405280600181526020017f31000000000000000000000000000000000000000000000000000000000000008152506040518060400160405280600a81526020017f556e6973776170205632000000000000000000000000000000000000000000008152506040518060400160405280600681526020017f554e492d5632000000000000000000000000000000000000000000000000000081525081600390816100fe9190610553565b50806004908161010e9190610553565b50505061012560058361020160201b90919060201c565b610120818152505061014160068261020160201b90919060201c565b6101408181525050818051906020012060e08181525050808051906020012061010081815250504660a0818152505061017e61024e60201b60201c565b608081815250503073ffffffffffffffffffffffffffffffffffffffff1660c08173ffffffffffffffffffffffffffffffffffffffff16815250505050503360085f6101000a81548173ffffffffffffffffffffffffffffffffffffffff021916908373ffffffffffffffffffffffffffffffffffffffff1602179055506107f2565b5f6020835110156102225761021b836102a860201b60201c565b9050610248565b826102328361030d60201b60201c565b5f0190816102409190610553565b5060ff5f1b90505b92915050565b5f7f8b73c3c69bb8fe3d512ecc4cf759cc79239f7b179b0ffacaa9a75d522b39400f60e05161010051463060405160200161028d959493929190610688565b60405160208183030381529060405280519060200120905090565b5f5f829050601f815111156102f457826040517f305a27a90000000000000000000000000000000000000000000000000000000081526004016102eb919061073f565b60405180910390fd5b8051816103009061078c565b5f1c175f1b915050919050565b5f819050919050565b5f81519050919050565b7f4e487b71000000000000000000000000000000000000000000000000000000005f52604160045260245ffd5b7f4e487b71000000000000000000000000000000000000000000000000000000005f52602260045260245ffd5b5f600282049050600182168061039157607f821691505b6020821081036103a4576103a361034d565b5b50919050565b5f819050815f5260205f209050919050565b5f6020601f8301049050919050565b5f82821b905092915050565b5f600883026104067fffffffffffffffffffffffffffffffffffffffffffffffffffffffffffffffff826103cb565b61041086836103cb565b95508019841693508086168417925050509392505050565b5f819050919050565b5f819050919050565b5f61045461044f61044a84610428565b610431565b610428565b9050919050565b5f819050919050565b61046d8361043a565b6104816104798261045b565b8484546103d7565b825550505050565b5f5f905090565b610498610489565b6104a3818484610464565b505050565b5b818110156104c6576104bb5f82610490565b6001810190506104a9565b5050565b601f82111561050b576104dc816103aa565b6104e5846103bc565b810160208510156104f4578190505b610508610500856103bc565b8301826104a8565b50505b505050565b5f82821c905092915050565b5f61052b5f1984600802610510565b1980831691505092915050565b5f610543838361051c565b9150826002028217905092915050565b61055c82610316565b67ffffffffffffffff81111561057557610574610320565b5b61057f825461037a565b61058a8282856104ca565b5f60209050601f8311600181146105bb575f84156105a9578287015190505b6105b38582610538565b86555061061a565b601f1984166105c9866103aa565b5f5b828110156105f0578489015182556001820191506020850194506020810190506105cb565b8683101561060d5784890151610609601f89168261051c565b8355505b6001600288020188555050505b505050505050565b5f819050919050565b61063481610622565b82525050565b61064381610428565b82525050565b5f73ffffffffffffffffffffffffffffffffffffffff82169050919050565b5f61067282610649565b9050919050565b61068281610668565b82525050565b5f60a08201905061069b5f83018861062b565b6106a8602083018761062b565b6106b5604083018661062b565b6106c2606083018561063a565b6106cf6080830184610679565b9695505050505050565b5f82825260208201905092915050565b8281835e5f83830152505050565b5f601f19601f8301169050919050565b5f61071182610316565b61071b81856106d9565b935061072b8185602086016106e9565b610734816106f7565b840191505092915050565b5f6020820190508181035f8301526107578184610707565b905092915050565b5f81519050919050565b5f819050602082019050919050565b5f6107838251610622565b80915050919050565b5f6107968261075f565b826107a084610769565b90506107ab81610778565b925060208210156107eb576107e67fffffffffffffffffffffffffffffffffffffffffffffffffffffffffffffffff836020036008026103cb565b831692505b5050919050565b60805160a05160c05160e05161010051610120516101405161425f6108435f395f6125fa01525f6125bf01525f612bca01525f612ba901525f61221c01525f61227201525f61229b015261425f5ff3fe608060405234801561000f575f5ffd5b50600436106101a7575f3560e01c806370a08231116100f7578063ba9a7a5611610095578063d21220a71161006f578063d21220a7146104de578063d505accf146104fc578063dd62ed3e14610518578063fff6cae914610548576101a7565b8063ba9a7a5614610486578063bc25cf77146104a4578063c45a0155146104c0576101a7565b806384b0196e116100d157806384b0196e146103e357806389afcb441461040757806395d89b4114610438578063a9059cbb14610456576101a7565b806370a08231146103655780637464fc3d146103955780637ecebe00146103b3576101a7565b806323b872dd11610164578063485cc9551161013e578063485cc955146102dd5780635909c0d5146102f95780635a3d5493146103175780636a62784214610335576101a7565b806323b872dd14610271578063313ce567146102a15780633644e515146102bf576101a7565b8063022c0d9f146101ab57806306fdde03146101c75780630902f1ac146101e5578063095ea7b3146102055780630dfe16811461023557806318160ddd14610253575b5f5ffd5b6101c560048036038101906101c09190613106565b610552565b005b6101cf610a8a565b6040516101dc91906131fa565b60405180910390f35b6101ed610b1a565b6040516101fc93929190613260565b60405180910390f35b61021f600480360381019061021a9190613295565b610b74565b60405161022c91906132ed565b60405180910390f35b61023d610b96565b60405161024a9190613315565b60405180910390f35b61025b610bbb565b604051610268919061333d565b60405180910390f35b61028b60048036038101906102869190613356565b610bc4565b60405161029891906132ed565b60405180910390f35b6102a9610bf2565b6040516102b691906133c1565b60405180910390f35b6102c7610bfa565b6040516102d491906133f2565b60405180910390f35b6102f760048036038101906102f2919061340b565b610c08565b005b610301610d1b565b60405161030e919061333d565b60405180910390f35b61031f610d21565b60405161032c919061333d565b60405180910390f35b61034f600480360381019061034a9190613449565b610d27565b60405161035c919061333d565b60405180910390f35b61037f600480360381019061037a9190613449565b61108e565b60405161038c919061333d565b60405180910390f35b61039d6110d3565b6040516103aa919061333d565b60405180910390f35b6103cd60048036038101906103c89190613449565b6110d9565b6040516103da919061333d565b60405180910390f35b6103eb6110ea565b6040516103fe9796959493929190613565565b60405180910390f35b610421600480360381019061041c9190613449565b61118f565b60405161042f9291906135e7565b60405180910390f35b610440611598565b60405161044d91906131fa565b60405180910390f35b610470600480360381019061046b9190613295565b611628565b60405161047d91906132ed565b60405180910390f35b61048e61164a565b60405161049b919061333d565b60405180910390f35b6104be60048036038101906104b99190613449565b611650565b005b6104c8611820565b6040516104d59190613315565b60405180910390f35b6104e6611845565b6040516104f39190613315565b60405180910390f35b61051660048036038101906105119190613662565b61186a565b005b610532600480360381019061052d919061340b565b6119af565b60405161053f919061333d565b60405180910390f35b610550611a31565b005b61055a611bb6565b5f85118061056757505f84115b6105a6576040517f08c379a000000000000000000000000000000000000000000000000000000000815260040161059d9061376f565b60405180910390fd5b5f5f6105b0610b1a565b5091509150816dffffffffffffffffffffffffffff16871080156105e35750806dffffffffffffffffffffffffffff1686105b610622576040517f08c379a0000000000000000000000000000000000000000000000000000000008152600401610619906137fd565b60405180910390fd5b5f5f5f60095f9054906101000a900473ffffffffffffffffffffffffffffffffffffffff1690505f600a5f9054906101000a900473ffffffffffffffffffffffffffffffffffffffff1690508173ffffffffffffffffffffffffffffffffffffffff168973ffffffffffffffffffffffffffffffffffffffff16141580156106d657508073ffffffffffffffffffffffffffffffffffffffff168973ffffffffffffffffffffffffffffffffffffffff1614155b610715576040517f08c379a000000000000000000000000000000000000000000000000000000000815260040161070c90613865565b60405180910390fd5b5f8b111561072957610728828a8d611c04565b5b5f8a111561073d5761073c818a8c611c04565b5b8173ffffffffffffffffffffffffffffffffffffffff166370a08231306040518263ffffffff1660e01b81526004016107769190613315565b602060405180830381865afa158015610791573d5f5f3e3d5ffd5b505050506040513d601f19601f820116820180604052508101906107b59190613897565b93508073ffffffffffffffffffffffffffffffffffffffff166370a08231306040518263ffffffff1660e01b81526004016107f09190613315565b602060405180830381865afa15801561080b573d5f5f3e3d5ffd5b505050506040513d601f19601f8201168201806040525081019061082f9190613897565b925050505f89856dffffffffffffffffffffffffffff1661085091906138ef565b831161085c575f610884565b89856dffffffffffffffffffffffffffff1661087891906138ef565b8361088391906138ef565b5b90505f89856dffffffffffffffffffffffffffff166108a391906138ef565b83116108af575f6108d7565b89856dffffffffffffffffffffffffffff166108cb91906138ef565b836108d691906138ef565b5b90505f8211806108e657505f81115b610925576040517f08c379a000000000000000000000000000000000000000000000000000000000815260040161091c90613992565b60405180910390fd5b5f60038361093391906139b0565b6103e88661094191906139b0565b61094b91906138ef565b90505f60038361095b91906139b0565b6103e88661096991906139b0565b61097391906138ef565b9050620f4240876dffffffffffffffffffffffffffff16896dffffffffffffffffffffffffffff166109a591906139b0565b6109af91906139b0565b81836109bb91906139b0565b10156109fc576040517f08c379a00000000000000000000000000000000000000000000000000000000081526004016109f390613a3b565b60405180910390fd5b5050610a0a84848888611d88565b8873ffffffffffffffffffffffffffffffffffffffff163373ffffffffffffffffffffffffffffffffffffffff167fd78ad95fa46c994b6551d0da85fc275fe613ce37657fb8d5e3d130840159d82284848f8f604051610a6d9493929190613a59565b60405180910390a3505050505050610a83612073565b5050505050565b606060038054610a9990613ac9565b80601f0160208091040260200160405190810160405280929190818152602001828054610ac590613ac9565b8015610b105780601f10610ae757610100808354040283529160200191610b10565b820191905f5260205f20905b815481529060010190602001808311610af357829003601f168201915b5050505050905090565b5f5f5f600b5f9054906101000a90046dffffffffffffffffffffffffffff169250600b600e9054906101000a90046dffffffffffffffffffffffffffff169150600b601c9054906101000a900463ffffffff169050909192565b5f5f610b7e61207d565b9050610b8b818585612084565b600191505092915050565b60095f9054906101000a900473ffffffffffffffffffffffffffffffffffffffff1681565b5f600254905090565b5f5f610bce61207d565b9050610bdb858285612096565b610be6858585612129565b60019150509392505050565b5f6012905090565b5f610c03612219565b905090565b60085f9054906101000a900473ffffffffffffffffffffffffffffffffffffffff1673ffffffffffffffffffffffffffffffffffffffff163373ffffffffffffffffffffffffffffffffffffffff1614610c97576040517f08c379a0000000000000000000000000000000000000000000000000000000008152600401610c8e90613b43565b60405180910390fd5b8160095f6101000a81548173ffffffffffffffffffffffffffffffffffffffff021916908373ffffffffffffffffffffffffffffffffffffffff16021790555080600a5f6101000a81548173ffffffffffffffffffffffffffffffffffffffff021916908373ffffffffffffffffffffffffffffffffffffffff1602179055505050565b600c5481565b600d5481565b5f610d30611bb6565b5f5f610d3a610b1a565b50915091505f60095f9054906101000a900473ffffffffffffffffffffffffffffffffffffffff1673ffffffffffffffffffffffffffffffffffffffff166370a08231306040518263ffffffff1660e01b8152600401610d9a9190613315565b602060405180830381865afa158015610db5573d5f5f3e3d5ffd5b505050506040513d601f19601f82011682018060405250810190610dd99190613897565b90505f600a5f9054906101000a900473ffffffffffffffffffffffffffffffffffffffff1673ffffffffffffffffffffffffffffffffffffffff166370a08231306040518263ffffffff1660e01b8152600401610e369190613315565b602060405180830381865afa158015610e51573d5f5f3e3d5ffd5b505050506040513d601f19601f82011682018060405250810190610e759190613897565b90505f846dffffffffffffffffffffffffffff1683610e9491906138ef565b90505f846dffffffffffffffffffffffffffff1683610eb391906138ef565b90505f610ec087876122cf565b90505f610ecb610bbb565b90505f8103610f08576103e8610eeb8486610ee691906139b0565b612473565b610ef591906138ef565b9850610f035f6103e86124ea565b610f61565b610f5e886dffffffffffffffffffffffffffff168286610f2891906139b0565b610f329190613b8e565b886dffffffffffffffffffffffffffff168386610f4f91906139b0565b610f599190613b8e565b612558565b98505b5f8911610fa3576040517f08c379a0000000000000000000000000000000000000000000000000000000008152600401610f9a90613c2e565b60405180910390fd5b610fad8a8a6124ea565b610fb986868a8a611d88565b811561102957600b600e9054906101000a90046dffffffffffffffffffffffffffff166dffffffffffffffffffffffffffff16600b5f9054906101000a90046dffffffffffffffffffffffffffff166dffffffffffffffffffffffffffff1661102291906139b0565b600e819055505b3373ffffffffffffffffffffffffffffffffffffffff167f4c209b5fc8ad50758f13e2e1088ba56a560dff690a1c6fef26394f4c03821c4f85856040516110719291906135e7565b60405180910390a25050505050505050611089612073565b919050565b5f5f5f8373ffffffffffffffffffffffffffffffffffffffff1673ffffffffffffffffffffffffffffffffffffffff1681526020019081526020015f20549050919050565b600e5481565b5f6110e382612570565b9050919050565b5f6060805f5f5f60606110fb6125b6565b6111036125f1565b46305f5f1b5f67ffffffffffffffff81111561112257611121613c4c565b5b6040519080825280602002602001820160405280156111505781602001602082028036833780820191505090505b507f0f00000000000000000000000000000000000000000000000000000000000000959493929190965096509650965096509650965090919293949596565b5f5f611199611bb6565b5f5f6111a3610b1a565b50915091505f60095f9054906101000a900473ffffffffffffffffffffffffffffffffffffffff1690505f600a5f9054906101000a900473ffffffffffffffffffffffffffffffffffffffff1690505f8273ffffffffffffffffffffffffffffffffffffffff166370a08231306040518263ffffffff1660e01b815260040161122c9190613315565b602060405180830381865afa158015611247573d5f5f3e3d5ffd5b505050506040513d601f19601f8201168201806040525081019061126b9190613897565b90505f8273ffffffffffffffffffffffffffffffffffffffff166370a08231306040518263ffffffff1660e01b81526004016112a79190613315565b602060405180830381865afa1580156112c2573d5f5f3e3d5ffd5b505050506040513d601f19601f820116820180604052508101906112e69190613897565b90505f6112f23061108e565b90505f6112ff88886122cf565b90505f61130a610bbb565b905080858461131991906139b0565b6113239190613b8e565b9a5080848461133291906139b0565b61133c9190613b8e565b99505f8b11801561134c57505f8a115b61138b576040517f08c379a000000000000000000000000000000000000000000000000000000000815260040161138290613ce9565b60405180910390fd5b611395308461262c565b6113a0878d8d611c04565b6113ab868d8c611c04565b8673ffffffffffffffffffffffffffffffffffffffff166370a08231306040518263ffffffff1660e01b81526004016113e49190613315565b602060405180830381865afa1580156113ff573d5f5f3e3d5ffd5b505050506040513d601f19601f820116820180604052508101906114239190613897565b94508573ffffffffffffffffffffffffffffffffffffffff166370a08231306040518263ffffffff1660e01b815260040161145e9190613315565b602060405180830381865afa158015611479573d5f5f3e3d5ffd5b505050506040513d601f19601f8201168201806040525081019061149d9190613897565b93506114ab85858b8b611d88565b811561151b57600b600e9054906101000a90046dffffffffffffffffffffffffffff166dffffffffffffffffffffffffffff16600b5f9054906101000a90046dffffffffffffffffffffffffffff166dffffffffffffffffffffffffffff1661151491906139b0565b600e819055505b8b73ffffffffffffffffffffffffffffffffffffffff163373ffffffffffffffffffffffffffffffffffffffff167fdccd412f0b1252819cb1fd330b93224ca42612892bb3f4f789976e6d819364968d8d60405161157a9291906135e7565b60405180910390a3505050505050505050611593612073565b915091565b6060600480546115a790613ac9565b80601f01602080910402602001604051908101604052809291908181526020018280546115d390613ac9565b801561161e5780601f106115f55761010080835404028352916020019161161e565b820191905f5260205f20905b81548152906001019060200180831161160157829003601f168201915b5050505050905090565b5f5f61163261207d565b905061163f818585612129565b600191505092915050565b6103e881565b611658611bb6565b5f60095f9054906101000a900473ffffffffffffffffffffffffffffffffffffffff1690505f600a5f9054906101000a900473ffffffffffffffffffffffffffffffffffffffff16905061175a8284600b5f9054906101000a90046dffffffffffffffffffffffffffff166dffffffffffffffffffffffffffff168573ffffffffffffffffffffffffffffffffffffffff166370a08231306040518263ffffffff1660e01b815260040161170c9190613315565b602060405180830381865afa158015611727573d5f5f3e3d5ffd5b505050506040513d601f19601f8201168201806040525081019061174b9190613897565b61175591906138ef565b611c04565b6118138184600b600e9054906101000a90046dffffffffffffffffffffffffffff166dffffffffffffffffffffffffffff168473ffffffffffffffffffffffffffffffffffffffff166370a08231306040518263ffffffff1660e01b81526004016117c59190613315565b602060405180830381865afa1580156117e0573d5f5f3e3d5ffd5b505050506040513d601f19601f820116820180604052508101906118049190613897565b61180e91906138ef565b611c04565b505061181d612073565b50565b60085f9054906101000a900473ffffffffffffffffffffffffffffffffffffffff1681565b600a5f9054906101000a900473ffffffffffffffffffffffffffffffffffffffff1681565b834211156118af57836040517f627913020000000000000000000000000000000000000000000000000000000081526004016118a6919061333d565b60405180910390fd5b5f7f6e71edae12b1b97f4d1f60370fef10105fa2faae0126114a169c64845d6126c98888886118dd8c6126ab565b896040516020016118f396959493929190613d07565b6040516020818303038152906040528051906020012090505f611915826126fe565b90505f61192482878787612717565b90508973ffffffffffffffffffffffffffffffffffffffff168173ffffffffffffffffffffffffffffffffffffffff161461199857808a6040517f4b800e4600000000000000000000000000000000000000000000000000000000815260040161198f929190613d66565b60405180910390fd5b6119a38a8a8a612084565b50505050505050505050565b5f60015f8473ffffffffffffffffffffffffffffffffffffffff1673ffffffffffffffffffffffffffffffffffffffff1681526020019081526020015f205f8373ffffffffffffffffffffffffffffffffffffffff1673ffffffffffffffffffffffffffffffffffffffff1681526020019081526020015f2054905092915050565b611a39611bb6565b611bac60095f9054906101000a900473ffffffffffffffffffffffffffffffffffffffff1673ffffffffffffffffffffffffffffffffffffffff166370a08231306040518263ffffffff1660e01b8152600401611a969190613315565b602060405180830381865afa158015611ab1573d5f5f3e3d5ffd5b505050506040513d601f19601f82011682018060405250810190611ad59190613897565b600a5f9054906101000a900473ffffffffffffffffffffffffffffffffffffffff1673ffffffffffffffffffffffffffffffffffffffff166370a08231306040518263ffffffff1660e01b8152600401611b2f9190613315565b602060405180830381865afa158015611b4a573d5f5f3e3d5ffd5b505050506040513d601f19601f82011682018060405250810190611b6e9190613897565b600b5f9054906101000a90046dffffffffffffffffffffffffffff16600b600e9054906101000a90046dffffffffffffffffffffffffffff16611d88565b611bb4612073565b565b6001600f5414611bfb576040517f08c379a0000000000000000000000000000000000000000000000000000000008152600401611bf290613dd7565b60405180910390fd5b5f600f81905550565b5f5f8473ffffffffffffffffffffffffffffffffffffffff166040518060400160405280601981526020017f7472616e7366657228616464726573732c75696e743235362900000000000000815250805190602001208585604051602401611c6d929190613df5565b604051602081830303815290604052907bffffffffffffffffffffffffffffffffffffffffffffffffffffffff19166020820180517bffffffffffffffffffffffffffffffffffffffffffffffffffffffff8381831617835250505050604051611cd79190613e60565b5f604051808303815f865af19150503d805f8114611d10576040519150601f19603f3d011682016040523d82523d5f602084013e611d15565b606091505b5091509150818015611d4257505f81511480611d41575080806020019051810190611d409190613ea0565b5b5b611d81576040517f08c379a0000000000000000000000000000000000000000000000000000000008152600401611d7890613f15565b60405180910390fd5b5050505050565b6dffffffffffffffffffffffffffff80168411158015611db857506dffffffffffffffffffffffffffff80168311155b611df7576040517f08c379a0000000000000000000000000000000000000000000000000000000008152600401611dee90613f7d565b60405180910390fd5b5f64010000000042611e099190613f9b565b90505f600b601c9054906101000a900463ffffffff1682611e2a9190613fcb565b90505f8163ffffffff16118015611e5157505f846dffffffffffffffffffffffffffff1614155b8015611e6d57505f836dffffffffffffffffffffffffffff1614155b15611f71578063ffffffff16611eb285611e8686612745565b7bffffffffffffffffffffffffffffffffffffffffffffffffffffffff1661277890919063ffffffff16565b7bffffffffffffffffffffffffffffffffffffffffffffffffffffffff16611eda91906139b0565b600c5f828254611eea9190614002565b925050819055508063ffffffff16611f3184611f0587612745565b7bffffffffffffffffffffffffffffffffffffffffffffffffffffffff1661277890919063ffffffff16565b7bffffffffffffffffffffffffffffffffffffffffffffffffffffffff16611f5991906139b0565b600d5f828254611f699190614002565b925050819055505b85600b5f6101000a8154816dffffffffffffffffffffffffffff02191690836dffffffffffffffffffffffffffff16021790555084600b600e6101000a8154816dffffffffffffffffffffffffffff02191690836dffffffffffffffffffffffffffff16021790555081600b601c6101000a81548163ffffffff021916908363ffffffff1602179055507f1c411e9a96e071241c2f21f7726b17ae89e3cab4c78be50e062b03a9fffbbad1600b5f9054906101000a90046dffffffffffffffffffffffffffff16600b600e9054906101000a90046dffffffffffffffffffffffffffff16604051612063929190614035565b60405180910390a1505050505050565b6001600f81905550565b5f33905090565b612091838383600161279d565b505050565b5f6120a184846119af565b90507fffffffffffffffffffffffffffffffffffffffffffffffffffffffffffffffff8110156121235781811015612114578281836040517ffb8f41b200000000000000000000000000000000000000000000000000000000815260040161210b9392919061405c565b60405180910390fd5b61212284848484035f61279d565b5b50505050565b5f73ffffffffffffffffffffffffffffffffffffffff168373ffffffffffffffffffffffffffffffffffffffff1603612199575f6040517f96c6fd1e0000000000000000000000000000000000000000000000000000000081526004016121909190613315565b60405180910390fd5b5f73ffffffffffffffffffffffffffffffffffffffff168273ffffffffffffffffffffffffffffffffffffffff1603612209575f6040517fec442f050000000000000000000000000000000000000000000000000000000081526004016122009190613315565b60405180910390fd5b61221483838361296c565b505050565b5f7f000000000000000000000000000000000000000000000000000000000000000073ffffffffffffffffffffffffffffffffffffffff163073ffffffffffffffffffffffffffffffffffffffff1614801561229457507f000000000000000000000000000000000000000000000000000000000000000046145b156122c1577f000000000000000000000000000000000000000000000000000000000000000090506122cc565b6122c9612b85565b90505b90565b5f5f60085f9054906101000a900473ffffffffffffffffffffffffffffffffffffffff1673ffffffffffffffffffffffffffffffffffffffff1663017e7e586040518163ffffffff1660e01b8152600401602060405180830381865afa15801561233b573d5f5f3e3d5ffd5b505050506040513d601f19601f8201168201806040525081019061235f91906140a5565b90505f73ffffffffffffffffffffffffffffffffffffffff168173ffffffffffffffffffffffffffffffffffffffff16141591505f600e549050821561245b575f8114612456575f6123db856dffffffffffffffffffffffffffff16876dffffffffffffffffffffffffffff166123d691906139b0565b612473565b90505f6123e783612473565b905080821115612453575f81836123fe91906138ef565b612406610bbb565b61241091906139b0565b90505f8260058561242191906139b0565b61242b9190614002565b90505f818361243a9190613b8e565b90505f81111561244f5761244e87826124ea565b5b5050505b50505b61246b565b5f811461246a575f600e819055505b5b505092915050565b5f60038211156124d8578190505f60016002846124909190613b8e565b61249a9190614002565b90505b818110156124d25780915060028182856124b79190613b8e565b6124c19190614002565b6124cb9190613b8e565b905061249d565b506124e5565b5f82146124e457600190505b5b919050565b8060025f8282546124fb9190614002565b92505081905550805f5f8473ffffffffffffffffffffffffffffffffffffffff1673ffffffffffffffffffffffffffffffffffffffff1681526020019081526020015f205f82825461254d9190614002565b925050819055505050565b5f8183106125665781612568565b825b905092915050565b5f60075f8373ffffffffffffffffffffffffffffffffffffffff1673ffffffffffffffffffffffffffffffffffffffff1681526020019081526020015f20549050919050565b60606125ec60057f0000000000000000000000000000000000000000000000000000000000000000612c1a90919063ffffffff16565b905090565b606061262760067f0000000000000000000000000000000000000000000000000000000000000000612c1a90919063ffffffff16565b905090565b5f73ffffffffffffffffffffffffffffffffffffffff168273ffffffffffffffffffffffffffffffffffffffff160361269c575f6040517f96c6fd1e0000000000000000000000000000000000000000000000000000000081526004016126939190613315565b60405180910390fd5b6126a7825f8361296c565b5050565b5f60075f8373ffffffffffffffffffffffffffffffffffffffff1673ffffffffffffffffffffffffffffffffffffffff1681526020019081526020015f205f815480929190600101919050559050919050565b5f61271061270a612219565b83612cc7565b9050919050565b5f5f5f5f61272788888888612d07565b9250925092506127378282612dee565b829350505050949350505050565b5f6e010000000000000000000000000000826dffffffffffffffffffffffffffff1661277191906140f7565b9050919050565b5f816dffffffffffffffffffffffffffff16836127959190614138565b905092915050565b5f73ffffffffffffffffffffffffffffffffffffffff168473ffffffffffffffffffffffffffffffffffffffff160361280d575f6040517fe602df050000000000000000000000000000000000000000000000000000000081526004016128049190613315565b60405180910390fd5b5f73ffffffffffffffffffffffffffffffffffffffff168373ffffffffffffffffffffffffffffffffffffffff160361287d575f6040517f94280d620000000000000000000000000000000000000000000000000000000081526004016128749190613315565b60405180910390fd5b8160015f8673ffffffffffffffffffffffffffffffffffffffff1673ffffffffffffffffffffffffffffffffffffffff1681526020019081526020015f205f8573ffffffffffffffffffffffffffffffffffffffff1673ffffffffffffffffffffffffffffffffffffffff1681526020019081526020015f20819055508015612966578273ffffffffffffffffffffffffffffffffffffffff168473ffffffffffffffffffffffffffffffffffffffff167f8c5be1e5ebec7d5bd14f71427d1e84f3dd0314c0f7b2291e5b200ac8c7c3b9258460405161295d919061333d565b60405180910390a35b50505050565b5f73ffffffffffffffffffffffffffffffffffffffff168373ffffffffffffffffffffffffffffffffffffffff16036129bc578060025f8282546129b09190614002565b92505081905550612a8a565b5f5f5f8573ffffffffffffffffffffffffffffffffffffffff1673ffffffffffffffffffffffffffffffffffffffff1681526020019081526020015f2054905081811015612a45578381836040517fe450d38c000000000000000000000000000000000000000000000000000000008152600401612a3c9392919061405c565b60405180910390fd5b8181035f5f8673ffffffffffffffffffffffffffffffffffffffff1673ffffffffffffffffffffffffffffffffffffffff1681526020019081526020015f2081905550505b5f73ffffffffffffffffffffffffffffffffffffffff168273ffffffffffffffffffffffffffffffffffffffff1603612ad1578060025f8282540392505081905550612b1b565b805f5f8473ffffffffffffffffffffffffffffffffffffffff1673ffffffffffffffffffffffffffffffffffffffff1681526020019081526020015f205f82825401925050819055505b8173ffffffffffffffffffffffffffffffffffffffff168373ffffffffffffffffffffffffffffffffffffffff167fddf252ad1be2c89b69c2b068fc378daa952ba7f163c4a11628f55a4df523b3ef83604051612b78919061333d565b60405180910390a3505050565b5f7f8b73c3c69bb8fe3d512ecc4cf759cc79239f7b179b0ffacaa9a75d522b39400f7f00000000000000000000000000000000000000000000000000000000000000007f00000000000000000000000000000000000000000000000000000000000000004630604051602001612bff959493929190614168565b60405160208183030381529060405280519060200120905090565b606060ff5f1b8314612c3657612c2f83612f50565b9050612cc1565b818054612c4290613ac9565b80601f0160208091040260200160405190810160405280929190818152602001828054612c6e90613ac9565b8015612cb95780601f10612c9057610100808354040283529160200191612cb9565b820191905f5260205f20905b815481529060010190602001808311612c9c57829003601f168201915b505050505090505b92915050565b5f6040517f190100000000000000000000000000000000000000000000000000000000000081528360028201528260228201526042812091505092915050565b5f5f5f7f7fffffffffffffffffffffffffffffff5d576e7357a4501ddfe92f46681b20a0845f1c1115612d43575f600385925092509250612de4565b5f6001888888886040515f8152602001604052604051612d6694939291906141b9565b6020604051602081039080840390855afa158015612d86573d5f5f3e3d5ffd5b5050506020604051035190505f73ffffffffffffffffffffffffffffffffffffffff168173ffffffffffffffffffffffffffffffffffffffff1603612dd7575f60015f5f1b93509350935050612de4565b805f5f5f1b935093509350505b9450945094915050565b5f6003811115612e0157612e006141fc565b5b826003811115612e1457612e136141fc565b5b0315612f4c5760016003811115612e2e57612e2d6141fc565b5b826003811115612e4157612e406141fc565b5b03612e78576040517ff645eedf00000000000000000000000000000000000000000000000000000000815260040160405180910390fd5b60026003811115612e8c57612e8b6141fc565b5b826003811115612e9f57612e9e6141fc565b5b03612ee357805f1c6040517ffce698f7000000000000000000000000000000000000000000000000000000008152600401612eda919061333d565b60405180910390fd5b600380811115612ef657612ef56141fc565b5b826003811115612f0957612f086141fc565b5b03612f4b57806040517fd78bce0c000000000000000000000000000000000000000000000000000000008152600401612f4291906133f2565b60405180910390fd5b5b5050565b60605f612f5c83612fc2565b90505f602067ffffffffffffffff811115612f7a57612f79613c4c565b5b6040519080825280601f01601f191660200182016040528015612fac5781602001600182028036833780820191505090505b5090508181528360208201528092505050919050565b5f5f60ff835f1c169050601f811115613007576040517fb3512b0c00000000000000000000000000000000000000000000000000000000815260040160405180910390fd5b80915050919050565b5f5ffd5b5f5ffd5b5f819050919050565b61302a81613018565b8114613034575f5ffd5b50565b5f8135905061304581613021565b92915050565b5f73ffffffffffffffffffffffffffffffffffffffff82169050919050565b5f6130748261304b565b9050919050565b6130848161306a565b811461308e575f5ffd5b50565b5f8135905061309f8161307b565b92915050565b5f5ffd5b5f5ffd5b5f5ffd5b5f5f83601f8401126130c6576130c56130a5565b5b8235905067ffffffffffffffff8111156130e3576130e26130a9565b5b6020830191508360018202830111156130ff576130fe6130ad565b5b9250929050565b5f5f5f5f5f6080868803121561311f5761311e613010565b5b5f61312c88828901613037565b955050602061313d88828901613037565b945050604061314e88828901613091565b935050606086013567ffffffffffffffff81111561316f5761316e613014565b5b61317b888289016130b1565b92509250509295509295909350565b5f81519050919050565b5f82825260208201905092915050565b8281835e5f83830152505050565b5f601f19601f8301169050919050565b5f6131cc8261318a565b6131d68185613194565b93506131e68185602086016131a4565b6131ef816131b2565b840191505092915050565b5f6020820190508181035f83015261321281846131c2565b905092915050565b5f6dffffffffffffffffffffffffffff82169050919050565b61323c8161321a565b82525050565b5f63ffffffff82169050919050565b61325a81613242565b82525050565b5f6060820190506132735f830186613233565b6132806020830185613233565b61328d6040830184613251565b949350505050565b5f5f604083850312156132ab576132aa613010565b5b5f6132b885828601613091565b92505060206132c985828601613037565b9150509250929050565b5f8115159050919050565b6132e7816132d3565b82525050565b5f6020820190506133005f8301846132de565b92915050565b61330f8161306a565b82525050565b5f6020820190506133285f830184613306565b92915050565b61333781613018565b82525050565b5f6020820190506133505f83018461332e565b92915050565b5f5f5f6060848603121561336d5761336c613010565b5b5f61337a86828701613091565b935050602061338b86828701613091565b925050604061339c86828701613037565b9150509250925092565b5f60ff82169050919050565b6133bb816133a6565b82525050565b5f6020820190506133d45f8301846133b2565b92915050565b5f819050919050565b6133ec816133da565b82525050565b5f6020820190506134055f8301846133e3565b92915050565b5f5f6040838503121561342157613420613010565b5b5f61342e85828601613091565b925050602061343f85828601613091565b9150509250929050565b5f6020828403121561345e5761345d613010565b5b5f61346b84828501613091565b91505092915050565b5f7fff0000000000000000000000000000000000000000000000000000000000000082169050919050565b6134a881613474565b82525050565b5f81519050919050565b5f82825260208201905092915050565b5f819050602082019050919050565b6134e081613018565b82525050565b5f6134f183836134d7565b60208301905092915050565b5f602082019050919050565b5f613513826134ae565b61351d81856134b8565b9350613528836134c8565b805f5b8381101561355857815161353f88826134e6565b975061354a836134fd565b92505060018101905061352b565b5085935050505092915050565b5f60e0820190506135785f83018a61349f565b818103602083015261358a81896131c2565b9050818103604083015261359e81886131c2565b90506135ad606083018761332e565b6135ba6080830186613306565b6135c760a08301856133e3565b81810360c08301526135d98184613509565b905098975050505050505050565b5f6040820190506135fa5f83018561332e565b613607602083018461332e565b9392505050565b613617816133a6565b8114613621575f5ffd5b50565b5f813590506136328161360e565b92915050565b613641816133da565b811461364b575f5ffd5b50565b5f8135905061365c81613638565b92915050565b5f5f5f5f5f5f5f60e0888a03121561367d5761367c613010565b5b5f61368a8a828b01613091565b975050602061369b8a828b01613091565b96505060406136ac8a828b01613037565b95505060606136bd8a828b01613037565b94505060806136ce8a828b01613624565b93505060a06136df8a828b0161364e565b92505060c06136f08a828b0161364e565b91505092959891949750929550565b7f556e697377617056323a20494e53554646494349454e545f4f55545055545f415f8201527f4d4f554e54000000000000000000000000000000000000000000000000000000602082015250565b5f613759602583613194565b9150613764826136ff565b604082019050919050565b5f6020820190508181035f8301526137868161374d565b9050919050565b7f556e697377617056323a20494e53554646494349454e545f4c495155494449545f8201527f5900000000000000000000000000000000000000000000000000000000000000602082015250565b5f6137e7602183613194565b91506137f28261378d565b604082019050919050565b5f6020820190508181035f830152613814816137db565b9050919050565b7f556e697377617056323a20494e56414c49445f544f00000000000000000000005f82015250565b5f61384f601583613194565b915061385a8261381b565b602082019050919050565b5f6020820190508181035f83015261387c81613843565b9050919050565b5f8151905061389181613021565b92915050565b5f602082840312156138ac576138ab613010565b5b5f6138b984828501613883565b91505092915050565b7f4e487b71000000000000000000000000000000000000000000000000000000005f52601160045260245ffd5b5f6138f982613018565b915061390483613018565b925082820390508181111561391c5761391b6138c2565b5b92915050565b7f556e697377617056323a20494e53554646494349454e545f494e5055545f414d5f8201527f4f554e5400000000000000000000000000000000000000000000000000000000602082015250565b5f61397c602483613194565b915061398782613922565b604082019050919050565b5f6020820190508181035f8301526139a981613970565b9050919050565b5f6139ba82613018565b91506139c583613018565b92508282026139d381613018565b915082820484148315176139ea576139e96138c2565b5b5092915050565b7f556e697377617056323a204b00000000000000000000000000000000000000005f82015250565b5f613a25600c83613194565b9150613a30826139f1565b602082019050919050565b5f6020820190508181035f830152613a5281613a19565b9050919050565b5f608082019050613a6c5f83018761332e565b613a79602083018661332e565b613a86604083018561332e565b613a93606083018461332e565b95945050505050565b7f4e487b71000000000000000000000000000000000000000000000000000000005f52602260045260245ffd5b5f6002820490506001821680613ae057607f821691505b602082108103613af357613af2613a9c565b5b50919050565b7f556e697377617056323a20464f5242494444454e0000000000000000000000005f82015250565b5f613b2d601483613194565b9150613b3882613af9565b602082019050919050565b5f6020820190508181035f830152613b5a81613b21565b9050919050565b7f4e487b71000000000000000000000000000000000000000000000000000000005f52601260045260245ffd5b5f613b9882613018565b9150613ba383613018565b925082613bb357613bb2613b61565b5b828204905092915050565b7f556e697377617056323a20494e53554646494349454e545f4c495155494449545f8201527f595f4d494e544544000000000000000000000000000000000000000000000000602082015250565b5f613c18602883613194565b9150613c2382613bbe565b604082019050919050565b5f6020820190508181035f830152613c4581613c0c565b9050919050565b7f4e487b71000000000000000000000000000000000000000000000000000000005f52604160045260245ffd5b7f556e697377617056323a20494e53554646494349454e545f4c495155494449545f8201527f595f4255524e4544000000000000000000000000000000000000000000000000602082015250565b5f613cd3602883613194565b9150613cde82613c79565b604082019050919050565b5f6020820190508181035f830152613d0081613cc7565b9050919050565b5f60c082019050613d1a5f8301896133e3565b613d276020830188613306565b613d346040830187613306565b613d41606083018661332e565b613d4e608083018561332e565b613d5b60a083018461332e565b979650505050505050565b5f604082019050613d795f830185613306565b613d866020830184613306565b9392505050565b7f556e697377617056323a204c4f434b45440000000000000000000000000000005f82015250565b5f613dc1601183613194565b9150613dcc82613d8d565b602082019050919050565b5f6020820190508181035f830152613dee81613db5565b9050919050565b5f604082019050613e085f830185613306565b613e15602083018461332e565b9392505050565b5f81519050919050565b5f81905092915050565b5f613e3a82613e1c565b613e448185613e26565b9350613e548185602086016131a4565b80840191505092915050565b5f613e6b8284613e30565b915081905092915050565b613e7f816132d3565b8114613e89575f5ffd5b50565b5f81519050613e9a81613e76565b92915050565b5f60208284031215613eb557613eb4613010565b5b5f613ec284828501613e8c565b91505092915050565b7f556e697377617056323a205452414e534645525f4641494c45440000000000005f82015250565b5f613eff601a83613194565b9150613f0a82613ecb565b602082019050919050565b5f6020820190508181035f830152613f2c81613ef3565b9050919050565b7f556e697377617056323a204f564552464c4f57000000000000000000000000005f82015250565b5f613f67601383613194565b9150613f7282613f33565b602082019050919050565b5f6020820190508181035f830152613f9481613f5b565b9050919050565b5f613fa582613018565b9150613fb083613018565b925082613fc057613fbf613b61565b5b828206905092915050565b5f613fd582613242565b9150613fe083613242565b9250828203905063ffffffff811115613ffc57613ffb6138c2565b5b92915050565b5f61400c82613018565b915061401783613018565b925082820190508082111561402f5761402e6138c2565b5b92915050565b5f6040820190506140485f830185613233565b6140556020830184613233565b9392505050565b5f60608201905061406f5f830186613306565b61407c602083018561332e565b614089604083018461332e565b949350505050565b5f8151905061409f8161307b565b92915050565b5f602082840312156140ba576140b9613010565b5b5f6140c784828501614091565b91505092915050565b5f7bffffffffffffffffffffffffffffffffffffffffffffffffffffffff82169050919050565b5f614101826140d0565b915061410c836140d0565b925082820261411a816140d0565b91508282048414831517614131576141306138c2565b5b5092915050565b5f614142826140d0565b915061414d836140d0565b92508261415d5761415c613b61565b5b828204905092915050565b5f60a08201905061417b5f8301886133e3565b61418860208301876133e3565b61419560408301866133e3565b6141a2606083018561332e565b6141af6080830184613306565b9695505050505050565b5f6080820190506141cc5f8301876133e3565b6141d960208301866133b2565b6141e660408301856133e3565b6141f360608301846133e3565b95945050505050565b7f4e487b71000000000000000000000000000000000000000000000000000000005f52602160045260245ffdfea2646970667358221220575d60d3ca45e863941f017369c5474b651732dea1b61805d4451951550a95dd64736f6c634300081e0033",
        "linkReferences": {}
    },
    "methodIdentifiers": {
        "DOMAIN_SEPARATOR()": "3644e515",
        "MINIMUM_LIQUIDITY()": "ba9a7a56",
        "allowance(address,address)": "dd62ed3e",
        "approve(address,uint256)": "095ea7b3",
        "balanceOf(address)": "70a08231",
        "burn(address)": "89afcb44",
        "decimals()": "313ce567",
        "eip712Domain()": "84b0196e",
        "factory()": "c45a0155",
        "getReserves()": "0902f1ac",
        "initialize(address,address)": "485cc955",
        "kLast()": "7464fc3d",
        "mint(address)": "6a627842",
        "name()": "06fdde03",
        "nonces(address)": "7ecebe00",
        "permit(address,address,uint256,uint256,uint8,bytes32,bytes32)": "d505accf",
        "price0CumulativeLast()": "5909c0d5",
        "price1CumulativeLast()": "5a3d5493",
        "skim(address)": "bc25cf77",
        "swap(uint256,uint256,address,bytes)": "022c0d9f",
        "symbol()": "95d89b41",
        "sync()": "fff6cae9",
        "token0()": "0dfe1681",
        "token1()": "d21220a7",
        "totalSupply()": "18160ddd",
        "transfer(address,uint256)": "a9059cbb",
        "transferFrom(address,address,uint256)": "23b872dd"
    },
    "id": 27
}