{"abi":[{"type":"constructor","inputs":[{"name":"initialOwner","type":"address","internalType":"address"}],"stateMutability":"nonpayable"},{"type":"function","name":"DOMAIN_SEPARATOR","inputs":[],"outputs":[{"name":"","type":"bytes32","internalType":"bytes32"}],"stateMutability":"view"},{"type":"function","name":"allowance","inputs":[{"name":"owner","type":"address","internalType":"address"},{"name":"spender","type":"address","internalType":"address"}],"outputs":[{"name":"","type":"uint256","internalType":"uint256"}],"stateMutability":"view"},{"type":"function","name":"approve","inputs":[{"name":"spender","type":"address","internalType":"address"},{"name":"value","type":"uint256","internalType":"uint256"}],"outputs":[{"name":"","type":"bool","internalType":"bool"}],"stateMutability":"nonpayable"},{"type":"function","name":"balanceOf","inputs":[{"name":"account","type":"address","internalType":"address"}],"outputs":[{"name":"","type":"uint256","internalType":"uint256"}],"stateMutability":"view"},{"type":"function","name":"burn","inputs":[{"name":"value","type":"uint256","internalType":"uint256"}],"outputs":[],"stateMutability":"nonpayable"},{"type":"function","name":"burnFrom","inputs":[{"name":"account","type":"address","internalType":"address"},{"name":"value","type":"uint256","internalType":"uint256"}],"outputs":[],"stateMutability":"nonpayable"},{"type":"function","name":"decimals","inputs":[],"outputs":[{"name":"","type":"uint8","internalType":"uint8"}],"stateMutability":"view"},{"type":"function","name":"eip712Domain","inputs":[],"outputs":[{"name":"fields","type":"bytes1","internalType":"bytes1"},{"name":"name","type":"string","internalType":"string"},{"name":"version","type":"string","internalType":"string"},{"name":"chainId","type":"uint256","internalType":"uint256"},{"name":"verifyingContract","type":"address","internalType":"address"},{"name":"salt","type":"bytes32","internalType":"bytes32"},{"name":"extensions","type":"uint256[]","internalType":"uint256[]"}],"stateMutability":"view"},{"type":"function","name":"mint","inputs":[{"name":"to","type":"address","internalType":"address"},{"name":"amount","type":"uint256","internalType":"uint256"}],"outputs":[],"stateMutability":"nonpayable"},{"type":"function","name":"name","inputs":[],"outputs":[{"name":"","type":"string","internalType":"string"}],"stateMutability":"view"},{"type":"function","name":"nonces","inputs":[{"name":"owner","type":"address","internalType":"address"}],"outputs":[{"name":"","type":"uint256","internalType":"uint256"}],"stateMutability":"view"},{"type":"function","name":"owner","inputs":[],"outputs":[{"name":"","type":"address","internalType":"address"}],"stateMutability":"view"},{"type":"function","name":"permit","inputs":[{"name":"owner","type":"address","internalType":"address"},{"name":"spender","type":"address","internalType":"address"},{"name":"value","type":"uint256","internalType":"uint256"},{"name":"deadline","type":"uint256","internalType":"uint256"},{"name":"v","type":"uint8","internalType":"uint8"},{"name":"r","type":"bytes32","internalType":"bytes32"},{"name":"s","type":"bytes32","internalType":"bytes32"}],"outputs":[],"stateMutability":"nonpayable"},{"type":"function","name":"renounceOwnership","inputs":[],"outputs":[],"stateMutability":"nonpayable"},{"type":"function","name":"symbol","inputs":[],"outputs":[{"name":"","type":"string","internalType":"string"}],"stateMutability":"view"},{"type":"function","name":"totalSupply","inputs":[],"outputs":[{"name":"","type":"uint256","internalType":"uint256"}],"stateMutability":"view"},{"type":"function","name":"transfer","inputs":[{"name":"to","type":"address","internalType":"address"},{"name":"value","type":"uint256","internalType":"uint256"}],"outputs":[{"name":"","type":"bool","internalType":"bool"}],"stateMutability":"nonpayable"},{"type":"function","name":"transferFrom","inputs":[{"name":"from","type":"address","internalType":"address"},{"name":"to","type":"address","internalType":"address"},{"name":"value","type":"uint256","internalType":"uint256"}],"outputs":[{"name":"","type":"bool","internalType":"bool"}],"stateMutability":"nonpayable"},{"type":"function","name":"transferOwnership","inputs":[{"name":"newOwner","type":"address","internalType":"address"}],"outputs":[],"stateMutability":"nonpayable"},{"type":"event","name":"Approval","inputs":[{"name":"owner","type":"address","indexed":true,"internalType":"address"},{"name":"spender","type":"address","indexed":true,"internalType":"address"},{"name":"value","type":"uint256","indexed":false,"internalType":"uint256"}],"anonymous":false},{"type":"event","name":"EIP712DomainChanged","inputs":[],"anonymous":false},{"type":"event","name":"OwnershipTransferred","inputs":[{"name":"previousOwner","type":"address","indexed":true,"internalType":"address"},{"name":"newOwner","type":"address","indexed":true,"internalType":"address"}],"anonymous":false},{"type":"event","name":"Transfer","inputs":[{"name":"from","type":"address","indexed":true,"internalType":"address"},{"name":"to","type":"address","indexed":true,"internalType":"address"},{"name":"value","type":"uint256","indexed":false,"internalType":"uint256"}],"anonymous":false},{"type":"error","name":"ECDSAInvalidSignature","inputs":[]},{"type":"error","name":"ECDSAInvalidSignatureLength","inputs":[{"name":"length","type":"uint256","internalType":"uint256"}]},{"type":"error","name":"ECDSAInvalidSignatureS","inputs":[{"name":"s","type":"bytes32","internalType":"bytes32"}]},{"type":"error","name":"ERC20InsufficientAllowance","inputs":[{"name":"spender","type":"address","internalType":"address"},{"name":"allowance","type":"uint256","internalType":"uint256"},{"name":"needed","type":"uint256","internalType":"uint256"}]},{"type":"error","name":"ERC20InsufficientBalance","inputs":[{"name":"sender","type":"address","internalType":"address"},{"name":"balance","type":"uint256","internalType":"uint256"},{"name":"needed","type":"uint256","internalType":"uint256"}]},{"type":"error","name":"ERC20InvalidApprover","inputs":[{"name":"approver","type":"address","internalType":"address"}]},{"type":"error","name":"ERC20InvalidReceiver","inputs":[{"name":"receiver","type":"address","internalType":"address"}]},{"type":"error","name":"ERC20InvalidSender","inputs":[{"name":"sender","type":"address","internalType":"address"}]},{"type":"error","name":"ERC20InvalidSpender","inputs":[{"name":"spender","type":"address","internalType":"address"}]},{"type":"error","name":"ERC2612ExpiredSignature","inputs":[{"name":"deadline","type":"uint256","internalType":"uint256"}]},{"type":"error","name":"ERC2612InvalidSigner","inputs":[{"name":"signer","type":"address","internalType":"address"},{"name":"owner","type":"address","internalType":"address"}]},{"type":"error","name":"InvalidAccountNonce","inputs":[{"name":"account","type":"address","internalType":"address"},{"name":"currentNonce","type":"uint256","internalType":"uint256"}]},{"type":"error","name":"InvalidShortString","inputs":[]},{"type":"error","name":"OwnableInvalidOwner","inputs":[{"name":"owner","type":"address","internalType":"address"}]},{"type":"error","name":"OwnableUnauthorizedAccount","inputs":[{"name":"account","type":"address","internalType":"address"}]},{"type":"error","name":"StringTooLong","inputs":[{"name":"str","type":"string","internalType":"string"}]}],"bytecode":{"object":"0x610160604052348015610010575f5ffd5b5060405161299138038061299183398181016040528101906100329190610495565b6040518060400160405280600a81526020017f556e697377617020563200000000000000000000000000000000000000000000815250806040518060400160405280600181526020017f3100000000000000000000000000000000000000000000000000000000000000815250836040518060400160405280600a81526020017f556e6973776170205632000000000000000000000000000000000000000000008152506040518060400160405280600681526020017f554e492d56320000000000000000000000000000000000000000000000000000815250816003908161011b91906106fd565b50806004908161012b91906106fd565b5050505f73ffffffffffffffffffffffffffffffffffffffff168173ffffffffffffffffffffffffffffffffffffffff160361019e575f6040517f1e4fbdf700000000000000000000000000000000000000000000000000000000815260040161019591906107db565b60405180910390fd5b6101ad8161025f60201b60201c565b506101c260068361032260201b90919060201c565b61012081815250506101de60078261032260201b90919060201c565b6101408181525050818051906020012060e08181525050808051906020012061010081815250504660a0818152505061021b61036f60201b60201c565b608081815250503073ffffffffffffffffffffffffffffffffffffffff1660c08173ffffffffffffffffffffffffffffffffffffffff168152505050505050610985565b5f60055f9054906101000a900473ffffffffffffffffffffffffffffffffffffffff1690508160055f6101000a81548173ffffffffffffffffffffffffffffffffffffffff021916908373ffffffffffffffffffffffffffffffffffffffff1602179055508173ffffffffffffffffffffffffffffffffffffffff168173ffffffffffffffffffffffffffffffffffffffff167f8be0079c531659141344cd1fd0a4f28419497f9722a3daafe3b4186f6b6457e060405160405180910390a35050565b5f6020835110156103435761033c836103c960201b60201c565b9050610369565b826103538361042e60201b60201c565b5f01908161036191906106fd565b5060ff5f1b90505b92915050565b5f7f8b73c3c69bb8fe3d512ecc4cf759cc79239f7b179b0ffacaa9a75d522b39400f60e0516101005146306040516020016103ae95949392919061081b565b60405160208183030381529060405280519060200120905090565b5f5f829050601f8151111561041557826040517f305a27a900000000000000000000000000000000000000000000000000000000815260040161040c91906108d2565b60405180910390fd5b8051816104219061091f565b5f1c175f1b915050919050565b5f819050919050565b5f5ffd5b5f73ffffffffffffffffffffffffffffffffffffffff82169050919050565b5f6104648261043b565b9050919050565b6104748161045a565b811461047e575f5ffd5b50565b5f8151905061048f8161046b565b92915050565b5f602082840312156104aa576104a9610437565b5b5f6104b784828501610481565b91505092915050565b5f81519050919050565b7f4e487b71000000000000000000000000000000000000000000000000000000005f52604160045260245ffd5b7f4e487b71000000000000000000000000000000000000000000000000000000005f52602260045260245ffd5b5f600282049050600182168061053b57607f821691505b60208210810361054e5761054d6104f7565b5b50919050565b5f819050815f5260205f209050919050565b5f6020601f8301049050919050565b5f82821b905092915050565b5f600883026105b07fffffffffffffffffffffffffffffffffffffffffffffffffffffffffffffffff82610575565b6105ba8683610575565b95508019841693508086168417925050509392505050565b5f819050919050565b5f819050919050565b5f6105fe6105f96105f4846105d2565b6105db565b6105d2565b9050919050565b5f819050919050565b610617836105e4565b61062b61062382610605565b848454610581565b825550505050565b5f5f905090565b610642610633565b61064d81848461060e565b505050565b5b81811015610670576106655f8261063a565b600181019050610653565b5050565b601f8211156106b55761068681610554565b61068f84610566565b8101602085101561069e578190505b6106b26106aa85610566565b830182610652565b50505b505050565b5f82821c905092915050565b5f6106d55f19846008026106ba565b1980831691505092915050565b5f6106ed83836106c6565b9150826002028217905092915050565b610706826104c0565b67ffffffffffffffff81111561071f5761071e6104ca565b5b6107298254610524565b610734828285610674565b5f60209050601f831160018114610765575f8415610753578287015190505b61075d85826106e2565b8655506107c4565b601f19841661077386610554565b5f5b8281101561079a57848901518255600182019150602085019450602081019050610775565b868310156107b757848901516107b3601f8916826106c6565b8355505b6001600288020188555050505b505050505050565b6107d58161045a565b82525050565b5f6020820190506107ee5f8301846107cc565b92915050565b5f819050919050565b610806816107f4565b82525050565b610815816105d2565b82525050565b5f60a08201905061082e5f8301886107fd565b61083b60208301876107fd565b61084860408301866107fd565b610855606083018561080c565b61086260808301846107cc565b9695505050505050565b5f82825260208201905092915050565b8281835e5f83830152505050565b5f601f19601f8301169050919050565b5f6108a4826104c0565b6108ae818561086c565b93506108be81856020860161087c565b6108c78161088a565b840191505092915050565b5f6020820190508181035f8301526108ea818461089a565b905092915050565b5f81519050919050565b5f819050602082019050919050565b5f61091682516107f4565b80915050919050565b5f610929826108f2565b82610933846108fc565b905061093e8161090b565b9250602082101561097e576109797fffffffffffffffffffffffffffffffffffffffffffffffffffffffffffffffff83602003600802610575565b831692505b5050919050565b60805160a05160c05160e051610100516101205161014051611fbb6109d65f395f610e5101525f610e1601525f61134a01525f61132901525f610acc01525f610b2201525f610b4b0152611fbb5ff3fe608060405234801561000f575f5ffd5b506004361061011f575f3560e01c8063715018a6116100ab57806395d89b411161006f57806395d89b41146102fb578063a9059cbb14610319578063d505accf14610349578063dd62ed3e14610365578063f2fde38b146103955761011f565b8063715018a61461026357806379cc67901461026d5780637ecebe001461028957806384b0196e146102b95780638da5cb5b146102dd5761011f565b8063313ce567116100f2578063313ce567146101bf5780633644e515146101dd57806340c10f19146101fb57806342966c681461021757806370a08231146102335761011f565b806306fdde0314610123578063095ea7b31461014157806318160ddd1461017157806323b872dd1461018f575b5f5ffd5b61012b6103b1565b6040516101389190611800565b60405180910390f35b61015b600480360381019061015691906118b1565b610441565b6040516101689190611909565b60405180910390f35b610179610463565b6040516101869190611931565b60405180910390f35b6101a960048036038101906101a4919061194a565b61046c565b6040516101b69190611909565b60405180910390f35b6101c761049a565b6040516101d491906119b5565b60405180910390f35b6101e56104a2565b6040516101f291906119e6565b60405180910390f35b610215600480360381019061021091906118b1565b6104b0565b005b610231600480360381019061022c91906119ff565b6104c6565b005b61024d60048036038101906102489190611a2a565b6104da565b60405161025a9190611931565b60405180910390f35b61026b61051f565b005b610287600480360381019061028291906118b1565b610532565b005b6102a3600480360381019061029e9190611a2a565b610552565b6040516102b09190611931565b60405180910390f35b6102c1610563565b6040516102d49796959493929190611b55565b60405180910390f35b6102e5610608565b6040516102f29190611bd7565b60405180910390f35b610303610630565b6040516103109190611800565b60405180910390f35b610333600480360381019061032e91906118b1565b6106c0565b6040516103409190611909565b60405180910390f35b610363600480360381019061035e9190611c44565b6106e2565b005b61037f600480360381019061037a9190611ce1565b610827565b60405161038c9190611931565b60405180910390f35b6103af60048036038101906103aa9190611a2a565b6108a9565b005b6060600380546103c090611d4c565b80601f01602080910402602001604051908101604052809291908181526020018280546103ec90611d4c565b80156104375780601f1061040e57610100808354040283529160200191610437565b820191905f5260205f20905b81548152906001019060200180831161041a57829003601f168201915b5050505050905090565b5f5f61044b61092d565b9050610458818585610934565b600191505092915050565b5f600254905090565b5f5f61047661092d565b9050610483858285610946565b61048e8585856109d9565b60019150509392505050565b5f6012905090565b5f6104ab610ac9565b905090565b6104b8610b7f565b6104c28282610c06565b5050565b6104d76104d161092d565b82610c85565b50565b5f5f5f8373ffffffffffffffffffffffffffffffffffffffff1673ffffffffffffffffffffffffffffffffffffffff1681526020019081526020015f20549050919050565b610527610b7f565b6105305f610d04565b565b6105448261053e61092d565b83610946565b61054e8282610c85565b5050565b5f61055c82610dc7565b9050919050565b5f6060805f5f5f6060610574610e0d565b61057c610e48565b46305f5f1b5f67ffffffffffffffff81111561059b5761059a611d7c565b5b6040519080825280602002602001820160405280156105c95781602001602082028036833780820191505090505b507f0f00000000000000000000000000000000000000000000000000000000000000959493929190965096509650965096509650965090919293949596565b5f60055f9054906101000a900473ffffffffffffffffffffffffffffffffffffffff16905090565b60606004805461063f90611d4c565b80601f016020809104026020016040519081016040528092919081815260200182805461066b90611d4c565b80156106b65780601f1061068d576101008083540402835291602001916106b6565b820191905f5260205f20905b81548152906001019060200180831161069957829003601f168201915b5050505050905090565b5f5f6106ca61092d565b90506106d78185856109d9565b600191505092915050565b8342111561072757836040517f6279130200000000000000000000000000000000000000000000000000000000815260040161071e9190611931565b60405180910390fd5b5f7f6e71edae12b1b97f4d1f60370fef10105fa2faae0126114a169c64845d6126c98888886107558c610e83565b8960405160200161076b96959493929190611da9565b6040516020818303038152906040528051906020012090505f61078d82610ed6565b90505f61079c82878787610eef565b90508973ffffffffffffffffffffffffffffffffffffffff168173ffffffffffffffffffffffffffffffffffffffff161461081057808a6040517f4b800e46000000000000000000000000000000000000000000000000000000008152600401610807929190611e08565b60405180910390fd5b61081b8a8a8a610934565b50505050505050505050565b5f60015f8473ffffffffffffffffffffffffffffffffffffffff1673ffffffffffffffffffffffffffffffffffffffff1681526020019081526020015f205f8373ffffffffffffffffffffffffffffffffffffffff1673ffffffffffffffffffffffffffffffffffffffff1681526020019081526020015f2054905092915050565b6108b1610b7f565b5f73ffffffffffffffffffffffffffffffffffffffff168173ffffffffffffffffffffffffffffffffffffffff1603610921575f6040517f1e4fbdf70000000000000000000000000000000000000000000000000000000081526004016109189190611bd7565b60405180910390fd5b61092a81610d04565b50565b5f33905090565b6109418383836001610f1d565b505050565b5f6109518484610827565b90507fffffffffffffffffffffffffffffffffffffffffffffffffffffffffffffffff8110156109d357818110156109c4578281836040517ffb8f41b20000000000000000000000000000000000000000000000000000000081526004016109bb93929190611e2f565b60405180910390fd5b6109d284848484035f610f1d565b5b50505050565b5f73ffffffffffffffffffffffffffffffffffffffff168373ffffffffffffffffffffffffffffffffffffffff1603610a49575f6040517f96c6fd1e000000000000000000000000000000000000000000000000000000008152600401610a409190611bd7565b60405180910390fd5b5f73ffffffffffffffffffffffffffffffffffffffff168273ffffffffffffffffffffffffffffffffffffffff1603610ab9575f6040517fec442f05000000000000000000000000000000000000000000000000000000008152600401610ab09190611bd7565b60405180910390fd5b610ac48383836110ec565b505050565b5f7f000000000000000000000000000000000000000000000000000000000000000073ffffffffffffffffffffffffffffffffffffffff163073ffffffffffffffffffffffffffffffffffffffff16148015610b4457507f000000000000000000000000000000000000000000000000000000000000000046145b15610b71577f00000000000000000000000000000000000000000000000000000000000000009050610b7c565b610b79611305565b90505b90565b610b8761092d565b73ffffffffffffffffffffffffffffffffffffffff16610ba5610608565b73ffffffffffffffffffffffffffffffffffffffff1614610c0457610bc861092d565b6040517f118cdaa7000000000000000000000000000000000000000000000000000000008152600401610bfb9190611bd7565b60405180910390fd5b565b5f73ffffffffffffffffffffffffffffffffffffffff168273ffffffffffffffffffffffffffffffffffffffff1603610c76575f6040517fec442f05000000000000000000000000000000000000000000000000000000008152600401610c6d9190611bd7565b60405180910390fd5b610c815f83836110ec565b5050565b5f73ffffffffffffffffffffffffffffffffffffffff168273ffffffffffffffffffffffffffffffffffffffff1603610cf5575f6040517f96c6fd1e000000000000000000000000000000000000000000000000000000008152600401610cec9190611bd7565b60405180910390fd5b610d00825f836110ec565b5050565b5f60055f9054906101000a900473ffffffffffffffffffffffffffffffffffffffff1690508160055f6101000a81548173ffffffffffffffffffffffffffffffffffffffff021916908373ffffffffffffffffffffffffffffffffffffffff1602179055508173ffffffffffffffffffffffffffffffffffffffff168173ffffffffffffffffffffffffffffffffffffffff167f8be0079c531659141344cd1fd0a4f28419497f9722a3daafe3b4186f6b6457e060405160405180910390a35050565b5f60085f8373ffffffffffffffffffffffffffffffffffffffff1673ffffffffffffffffffffffffffffffffffffffff1681526020019081526020015f20549050919050565b6060610e4360067f000000000000000000000000000000000000000000000000000000000000000061139a90919063ffffffff16565b905090565b6060610e7e60077f000000000000000000000000000000000000000000000000000000000000000061139a90919063ffffffff16565b905090565b5f60085f8373ffffffffffffffffffffffffffffffffffffffff1673ffffffffffffffffffffffffffffffffffffffff1681526020019081526020015f205f815480929190600101919050559050919050565b5f610ee8610ee2610ac9565b83611447565b9050919050565b5f5f5f5f610eff88888888611487565b925092509250610f0f828261156e565b829350505050949350505050565b5f73ffffffffffffffffffffffffffffffffffffffff168473ffffffffffffffffffffffffffffffffffffffff1603610f8d575f6040517fe602df05000000000000000000000000000000000000000000000000000000008152600401610f849190611bd7565b60405180910390fd5b5f73ffffffffffffffffffffffffffffffffffffffff168373ffffffffffffffffffffffffffffffffffffffff1603610ffd575f6040517f94280d62000000000000000000000000000000000000000000000000000000008152600401610ff49190611bd7565b60405180910390fd5b8160015f8673ffffffffffffffffffffffffffffffffffffffff1673ffffffffffffffffffffffffffffffffffffffff1681526020019081526020015f205f8573ffffffffffffffffffffffffffffffffffffffff1673ffffffffffffffffffffffffffffffffffffffff1681526020019081526020015f208190555080156110e6578273ffffffffffffffffffffffffffffffffffffffff168473ffffffffffffffffffffffffffffffffffffffff167f8c5be1e5ebec7d5bd14f71427d1e84f3dd0314c0f7b2291e5b200ac8c7c3b925846040516110dd9190611931565b60405180910390a35b50505050565b5f73ffffffffffffffffffffffffffffffffffffffff168373ffffffffffffffffffffffffffffffffffffffff160361113c578060025f8282546111309190611e91565b9250508190555061120a565b5f5f5f8573ffffffffffffffffffffffffffffffffffffffff1673ffffffffffffffffffffffffffffffffffffffff1681526020019081526020015f20549050818110156111c5578381836040517fe450d38c0000000000000000000000000000000000000000000000000000000081526004016111bc93929190611e2f565b60405180910390fd5b8181035f5f8673ffffffffffffffffffffffffffffffffffffffff1673ffffffffffffffffffffffffffffffffffffffff1681526020019081526020015f2081905550505b5f73ffffffffffffffffffffffffffffffffffffffff168273ffffffffffffffffffffffffffffffffffffffff1603611251578060025f828254039250508190555061129b565b805f5f8473ffffffffffffffffffffffffffffffffffffffff1673ffffffffffffffffffffffffffffffffffffffff1681526020019081526020015f205f82825401925050819055505b8173ffffffffffffffffffffffffffffffffffffffff168373ffffffffffffffffffffffffffffffffffffffff167fddf252ad1be2c89b69c2b068fc378daa952ba7f163c4a11628f55a4df523b3ef836040516112f89190611931565b60405180910390a3505050565b5f7f8b73c3c69bb8fe3d512ecc4cf759cc79239f7b179b0ffacaa9a75d522b39400f7f00000000000000000000000000000000000000000000000000000000000000007f0000000000000000000000000000000000000000000000000000000000000000463060405160200161137f959493929190611ec4565b60405160208183030381529060405280519060200120905090565b606060ff5f1b83146113b6576113af836116d0565b9050611441565b8180546113c290611d4c565b80601f01602080910402602001604051908101604052809291908181526020018280546113ee90611d4c565b80156114395780601f1061141057610100808354040283529160200191611439565b820191905f5260205f20905b81548152906001019060200180831161141c57829003601f168201915b505050505090505b92915050565b5f6040517f190100000000000000000000000000000000000000000000000000000000000081528360028201528260228201526042812091505092915050565b5f5f5f7f7fffffffffffffffffffffffffffffff5d576e7357a4501ddfe92f46681b20a0845f1c11156114c3575f600385925092509250611564565b5f6001888888886040515f81526020016040526040516114e69493929190611f15565b6020604051602081039080840390855afa158015611506573d5f5f3e3d5ffd5b5050506020604051035190505f73ffffffffffffffffffffffffffffffffffffffff168173ffffffffffffffffffffffffffffffffffffffff1603611557575f60015f5f1b93509350935050611564565b805f5f5f1b935093509350505b9450945094915050565b5f600381111561158157611580611f58565b5b82600381111561159457611593611f58565b5b03156116cc57600160038111156115ae576115ad611f58565b5b8260038111156115c1576115c0611f58565b5b036115f8576040517ff645eedf00000000000000000000000000000000000000000000000000000000815260040160405180910390fd5b6002600381111561160c5761160b611f58565b5b82600381111561161f5761161e611f58565b5b0361166357805f1c6040517ffce698f700000000000000000000000000000000000000000000000000000000815260040161165a9190611931565b60405180910390fd5b60038081111561167657611675611f58565b5b82600381111561168957611688611f58565b5b036116cb57806040517fd78bce0c0000000000000000000000000000000000000000000000000000000081526004016116c291906119e6565b60405180910390fd5b5b5050565b60605f6116dc83611742565b90505f602067ffffffffffffffff8111156116fa576116f9611d7c565b5b6040519080825280601f01601f19166020018201604052801561172c5781602001600182028036833780820191505090505b5090508181528360208201528092505050919050565b5f5f60ff835f1c169050601f811115611787576040517fb3512b0c00000000000000000000000000000000000000000000000000000000815260040160405180910390fd5b80915050919050565b5f81519050919050565b5f82825260208201905092915050565b8281835e5f83830152505050565b5f601f19601f8301169050919050565b5f6117d282611790565b6117dc818561179a565b93506117ec8185602086016117aa565b6117f5816117b8565b840191505092915050565b5f6020820190508181035f83015261181881846117c8565b905092915050565b5f5ffd5b5f73ffffffffffffffffffffffffffffffffffffffff82169050919050565b5f61184d82611824565b9050919050565b61185d81611843565b8114611867575f5ffd5b50565b5f8135905061187881611854565b92915050565b5f819050919050565b6118908161187e565b811461189a575f5ffd5b50565b5f813590506118ab81611887565b92915050565b5f5f604083850312156118c7576118c6611820565b5b5f6118d48582860161186a565b92505060206118e58582860161189d565b9150509250929050565b5f8115159050919050565b611903816118ef565b82525050565b5f60208201905061191c5f8301846118fa565b92915050565b61192b8161187e565b82525050565b5f6020820190506119445f830184611922565b92915050565b5f5f5f6060848603121561196157611960611820565b5b5f61196e8682870161186a565b935050602061197f8682870161186a565b92505060406119908682870161189d565b9150509250925092565b5f60ff82169050919050565b6119af8161199a565b82525050565b5f6020820190506119c85f8301846119a6565b92915050565b5f819050919050565b6119e0816119ce565b82525050565b5f6020820190506119f95f8301846119d7565b92915050565b5f60208284031215611a1457611a13611820565b5b5f611a218482850161189d565b91505092915050565b5f60208284031215611a3f57611a3e611820565b5b5f611a4c8482850161186a565b91505092915050565b5f7fff0000000000000000000000000000000000000000000000000000000000000082169050919050565b611a8981611a55565b82525050565b611a9881611843565b82525050565b5f81519050919050565b5f82825260208201905092915050565b5f819050602082019050919050565b611ad08161187e565b82525050565b5f611ae18383611ac7565b60208301905092915050565b5f602082019050919050565b5f611b0382611a9e565b611b0d8185611aa8565b9350611b1883611ab8565b805f5b83811015611b48578151611b2f8882611ad6565b9750611b3a83611aed565b925050600181019050611b1b565b5085935050505092915050565b5f60e082019050611b685f83018a611a80565b8181036020830152611b7a81896117c8565b90508181036040830152611b8e81886117c8565b9050611b9d6060830187611922565b611baa6080830186611a8f565b611bb760a08301856119d7565b81810360c0830152611bc98184611af9565b905098975050505050505050565b5f602082019050611bea5f830184611a8f565b92915050565b611bf98161199a565b8114611c03575f5ffd5b50565b5f81359050611c1481611bf0565b92915050565b611c23816119ce565b8114611c2d575f5ffd5b50565b5f81359050611c3e81611c1a565b92915050565b5f5f5f5f5f5f5f60e0888a031215611c5f57611c5e611820565b5b5f611c6c8a828b0161186a565b9750506020611c7d8a828b0161186a565b9650506040611c8e8a828b0161189d565b9550506060611c9f8a828b0161189d565b9450506080611cb08a828b01611c06565b93505060a0611cc18a828b01611c30565b92505060c0611cd28a828b01611c30565b91505092959891949750929550565b5f5f60408385031215611cf757611cf6611820565b5b5f611d048582860161186a565b9250506020611d158582860161186a565b9150509250929050565b7f4e487b71000000000000000000000000000000000000000000000000000000005f52602260045260245ffd5b5f6002820490506001821680611d6357607f821691505b602082108103611d7657611d75611d1f565b5b50919050565b7f4e487b71000000000000000000000000000000000000000000000000000000005f52604160045260245ffd5b5f60c082019050611dbc5f8301896119d7565b611dc96020830188611a8f565b611dd66040830187611a8f565b611de36060830186611922565b611df06080830185611922565b611dfd60a0830184611922565b979650505050505050565b5f604082019050611e1b5f830185611a8f565b611e286020830184611a8f565b9392505050565b5f606082019050611e425f830186611a8f565b611e4f6020830185611922565b611e5c6040830184611922565b949350505050565b7f4e487b71000000000000000000000000000000000000000000000000000000005f52601160045260245ffd5b5f611e9b8261187e565b9150611ea68361187e565b9250828201905080821115611ebe57611ebd611e64565b5b92915050565b5f60a082019050611ed75f8301886119d7565b611ee460208301876119d7565b611ef160408301866119d7565b611efe6060830185611922565b611f0b6080830184611a8f565b9695505050505050565b5f608082019050611f285f8301876119d7565b611f3560208301866119a6565b611f4260408301856119d7565b611f4f60608301846119d7565b95945050505050565b7f4e487b71000000000000000000000000000000000000000000000000000000005f52602160045260245ffdfea2646970667358221220db5a73b8352be0d1952bd81d588d82ba0889a75a93dc8bc208c3d2dd10f2130c64736f6c634300081e0033","linkReferences":{}},"methodIdentifiers":{"DOMAIN_SEPARATOR()":"3644e515","allowance(address,address)":"dd62ed3e","approve(address,uint256)":"095ea7b3","balanceOf(address)":"70a08231","burn(uint256)":"42966c68","burnFrom(address,uint256)":"79cc6790","decimals()":"313ce567","eip712Domain()":"84b0196e","mint(address,uint256)":"40c10f19","name()":"06fdde03","nonces(address)":"7ecebe00","owner()":"8da5cb5b","permit(address,address,uint256,uint256,uint8,bytes32,bytes32)":"d505accf","renounceOwnership()":"715018a6","symbol()":"95d89b41","totalSupply()":"18160ddd","transfer(address,uint256)":"a9059cbb","transferFrom(address,address,uint256)":"23b872dd","transferOwnership(address)":"f2fde38b"},"id":22}